:100000000C9434000C943E000C943E000C943E0082
:100010000C943E000C943E000C943E000C943E0068
:100020000C943E000C943E000C943E000C943E0058
:100030000C943E000C943E000C943E000C943E0048
:100040000C943E000C943E000C943E000C943E0038
:100050000C943E000C943E000C943E000C943E0028
:100060000C943E000C943E0011241FBECFEFD8E04C
:10007000DEBFCDBF0E946D000C947F000C94000089
:100080000F931F93CF93DF9300D000D0CDB7DEB78F
:1000900019821A821B821C8209811A812B813C8160
:1000A00006171707280739076CF409811A812B8175
:1000B0003C810F5F1F4F2F4F3F4F09831A832B83C4
:1000C0003C83EACF80E090E00F900F900F900F906C
:1000D000DF91CF911F910F91089580E284B9C0E222
:1000E000C5B960EA76E881E090E00E94400015B86A
:1000F00060EA76E881E090E00E944000F1CFF89459
:02010000FFCF2F
:00000001FF
