:100000004AC1000066C1000064C1000062C1000076
:1000100060C100005EC100005CC100005AC1000068
:1000200058C1000056C1000054C1000052C1000078
:1000300050C100004EC100000BC200004AC10000C8
:1000400048C1000046C10000B2C1000042C100002A
:1000500040C100003EC100003CC100003AC10000A8
:1000600038C1000036C100000C944B010C946901AA
:100070000C9469010C9469010C9469010C94690158
:100080000C9469010C9469010C9469010C94690148
:100090000C9469010C9469010C9469010C94690138
:1000A0000C9428020C9469010C9469010C94690168
:1000B0000C94D7010C9469010C9469010C946901AA
:1000C0000C9469010C9469010C9469010C94690108
:1000D0000000000000000000434F4E534F4C45000D
:1000E0000000110811081108110811080F08110863
:1000F00011080F0800000F080001000000010000B7
:10010000004E554C4C444556000000110811081192
:1001100008110811080F08110811080F0800000F36
:10012000080002000000000000004E414D45535001
:1001300041434500E80C900E0F080F080F080F0808
:100140000F080F080F0800000F08006E616D696E40
:100150006974202864657669636573293A0D0A001D
:100160004552524F522047455453544B2025730A51
:10017000006E616D6573706163653A2064657669D0
:100180006365206E616D6520257320746F6F206C30
:100190006F6E670D0A006E616D6573706163653A1D
:1001A0002063616E6E6F74206D6F756E74202564B0
:1001B0000D0A000A0A416C6C20757365722070721A
:1001C0006F636573736573206861766520636F6D17
:1001D000706C657465642E0A0A000A57656C636F5B
:1001E0006D6520746F2058696E75210A0A0D0958D3
:1001F000696E75204F5320436F7079726967687418
:100200002028632920323031322C20323031350A17
:100210000D09446F75676C617320452E20436F6D27
:10022000657220616E64204352432050726573737F
:100230002C20496E632E0A0A0D0958696E75204FED
:100240005320666F72204156522061746D6567615C
:10025000333238702076302E312028632920323016
:1002600032300A0D0952616661656C2049676E6122
:1002700063696F205A7572697461203C72616661AE
:100280004066692E756E636F6D612E6564752E61B3
:10029000723E0A0A0D0011241FBECFEFD8E0DEBF68
:1002A000CDBF11E0A0E0B1E0EAE4FAE202C00590BF
:1002B0000D92A035B107D9F724E0A0E5B1E001C067
:1002C0001D92AA36B207E1F70C9457060E940F0F51
:1002D000FFC296CEFF93EF93FC0100820FB6F89415
:1002E00004A21182228233824482558266827782FE
:1002F00080869186A286B386C486D586E686F786F2
:10030000008B118B228B338B448B558B668B778BB9
:10031000808F918FA28FB38FC48FD58F0F90068E51
:100320000F90078E0DB600A20EB601A2FB0100A031
:100330000DBE01A00EBE078C0F92068C0F92D58DBC
:10034000C48DB38DA28D918D808D778966895589F5
:1003500044893389228911890089F784E684D58408
:10036000C484B384A284918480847780668055801D
:10037000448033802280118004A00FBE0080EF9162
:10038000FF910895E0910001F0910101158289E14A
:10039000848386E0828388E181830895E09100016F
:1003A000F0910101908195FFFDCF868308951F9202
:1003B0000F920FB60F9211248F938091C6008093F5
:1003C00058018F910F900FBE0F901F901895A4E0C9
:1003D000B0E0EDEEF1E00C94471019821A821B8216
:1003E0001C8219821A821B821C8209811A812B812C
:1003F0003C81061717072807390770F400000981A8
:100400001A812B813C810F5F1F4F2F4F3F4F098374
:100410001A832B833C83E9CF2496E4E00C94631089
:1004200080E284B92D9A60E47DE083E090E0CFDF44
:100430002D9860E47DE083E090E0C9CF10928101C7
:1004400010928201109283011092840181E008953C
:100450001F920F920FB60F9211242F933F934F9339
:100460005F936F937F938F939F93AF93BF93EF931C
:10047000FF9380918B0190918C01A0918D01B0919F
:100480008E010196A11DB11D80938B0190938C016B
:10049000A0938D01B0938E01883E9340A105B105D4
:1004A000D8F080918F0190919001A0919101B0912D
:1004B00092010196A11DB11D80938F01909390012F
:1004C000A0939101B093920110928B0110928C0134
:1004D00010928D0110928E0180918501909186017C
:1004E00026E0289FF001299FF00D1124E953FC4FCD
:1004F000828193818630910584F4289FF001299FA1
:10050000F00D1124E953FC4F808191810197918373
:100510008083892B11F40E94FC0B809187019091BC
:100520008801A0918901B0918A010197A109B109BF
:1005300049F08093870190938801A0938901B0933B
:100540008A010DC081E090E0A0E0B0E080938701D7
:1005500090938801A0938901B0938A0168D7FF9195
:10056000EF91BF91AF919F918F917F916F915F912B
:100570004F913F912F910F900FBE0F901F901895A4
:1005800096D6909386018093850181E090E0A0E06B
:10059000B0E08093870190938801A0938901B09384
:1005A0008A0110928F011092900110929101109285
:1005B000920110928B0110928C0110928D01109279
:1005C0008E0185B5836085BD84B5826084BD8FE36F
:1005D00087BDEEE6F0E08081826080830895CF924F
:1005E000DF92EF92FF92CF93DF936B017C010FD5E7
:1005F000D82F83E0C816D104E104F10420F08D2F38
:1006000009D5CFEF11C029E22C9DC0012D9D900D81
:10061000112480539F4FFC0176960590F491E02DB4
:100620000995C82F8D2FF6D48C2FDF91CF91FF9095
:10063000EF90DF90CF900895A6E0B0E0E2E2F3E023
:100640000C9439102B8D29838C8CED8CFE8C09A198
:100650003AA13E83DCD4982E40E4E416F1041CF465
:1006600070E4E72EF12C83E0E80EF11C9CEFE92208
:1006700027010F2C000C66087708C301B20169D26C
:100680001C01019679F480E691E00E94350C892DD9
:10069000C1D4FFEFFA832FEF2B833FEF3C834FEF63
:1006A0004D8309C130915001209151018091520137
:1006B00090915301A12CB12C1BE5632F722F26E0E2
:1006C00030E040E050E00E941D106B017C016A8325
:1006D000DB82EC82FD82169FF001179FF00D112442
:1006E000E956FE4F80819181B701A6014F5F5F4FB0
:1006F0006F4F7F4F892B79F44093500150935101F4
:1007000060935201709353018FEFC816D806E80624
:10071000F806A1F4B8CF342F252FCB01EFEFAE1A96
:10072000BE0AF6E0AF16B10441F640935001509373
:1007300051016093520190935301A5CF2F8D38A1A1
:10074000121613060CF09FCF8091B9039091BA0353
:10075000A091BB03B091BC030196A11DB11D809374
:10076000B9039093BA03A093BB03B093BC0385E095
:1007700090E0918380833383228331AE20AE42AEFA
:1007800053AE64AE75AEDF01AB5BBF4F1C92A02FC2
:10079000BE818F0180E090E02D91F801E80FF91FF4
:1007A00026AF222321F0019687309105A9F72BE58A
:1007B0002C9DC0012D9D900D1124FC01E956FE4F8A
:1007C0005F01EA5BFF4F8FEF9FEF91838083B8D18A
:1007D000F501E85BFF4F60837183828393833896D2
:1007E00010823196118210823296118210823296D6
:1007F000118210828AEAF10180838BA19CA1F5010C
:1008000093A782A720E030E0F801E20FF31F1482E3
:100810002F5F3F4F26323105B9F72BE52C9DF001B4
:100820002D9DF00D1124E956FE4F298124AB85AA98
:1008300026A387A220E820A7DE01959620E030E0DD
:100840002817390764F44D915D91F901EE0FFF1FF0
:10085000E00FF11F55A744A72F5F3F4FF1CFFC01D9
:100860007696EE0FFF1F4BE54C9D90014D9D300D90
:100870001124E20FF31FE956FE4F11821082F90195
:10088000E956FE4F848F958F2D533E4F228F338F25
:100890008AEF9BE0D10111978C9311979C9311974C
:1008A00039813C9311978C9245E0241A310824A297
:1008B00035A2892DAFD36A817B818C819D8126965B
:1008C000E2E10C94551061E070E080E090E0089562
:1008D00037D1A9C3A0E0B0E0E0E7F4E00C943F100A
:1008E000EC016A017B0193D3C114D104E104F1044A
:1008F00009F447C02091C3033091C403C217D30742
:1009000008F43FC02091C5033091C6032C173D0762
:10091000C0F197E0C90ED11CE11CF11C98EFC9226F
:10092000A601DD0C660B770BE091BD03F091BE03D1
:10093000ADEBB3E0309741F0EC17FD0740F5DF0178
:100940000190F081E02DF6CF93E0AD3BB907D1F1F6
:100950001296CD90DD90ED90FC9015978D010B2EA9
:10096000000C220B330B0C0D1D1D2E1D3F1D6E01A7
:100970000D2E000CEE08FF08C016D106E206F306A5
:1009800018F448D38FEF82C0309741F41EC093E033
:10099000AD3BB907E9F600E010E098016E010D2EBD
:1009A000000CEE08FF08C40ED51EE61EF71E4F0110
:1009B0000F2E000CAA08BB088C149D04AE04BF04C3
:1009C00020F4DFCF00E010E09801C090BF03D0908A
:1009D000C003E090C103F090C203C40ED51EE61E12
:1009E000F71EC092BF03D092C003E092C103F09201
:1009F000C2036E010D2E000CEE08FF08C016D106D2
:100A0000E206F30691F412960D911D912D913C9101
:100A10001597400F511F621F731F12964D935D93E0
:100A20006D937C931597ED0108C0F983E8834A83A1
:100A30005B836C837D83CD93DC934A815B816C8186
:100A40007D818E010D2E000C220B330B040F151F20
:100A5000261F371F6F010F2E000CEE08FF080C1524
:100A60001D052E053F0581F4028113812481358106
:100A7000400F511F621F731F4A835B836C837D830A
:100A80002081318139832883C5D281E0CDB7DEB79B
:100A9000ECE00C945B1026E0AC01249FC001259F84
:100AA000900D1124FC01E953FC4F428153814630E3
:100AB00051051CF5BA01052E000C880B990B249FDB
:100AC000F001259FF00D1124E953FC4FA281B38161
:100AD00044815581249FF001259FF00D1124E95395
:100AE000FC4FB383A2832A9FF0012B9FF00D1124AA
:100AF000E953FC4F5583448308956FEF7FEFCB019B
:100B0000089546E0469FF001479FF00D1124E953F8
:100B1000FC4FA281B38124813581429FF001439F24
:100B2000F00D1124E953FC4FB383A2834A9FF001D7
:100B30004B9FF00D1124E953FC4F35832483089516
:100B4000609193017091940180919501909196012B
:100B50000895A0E0B0E0EFEAF5E00C9443106B01DB
:100B60007C0155D2C114D104E104F10449F197E0AC
:100B7000C90ED11CE11CF11C98EFC9220D2C000CF0
:100B8000EE08FF08E091BD03F091BE03A0E0B0E0E5
:100B9000C0E0D0E02DEB33E0309781F0428153810B
:100BA000648175814C155D056E057F0510F0D901D6
:100BB000EF019F010190F081E02DEECF209721F40D
:100BC00029D28FEF9FEF41C00A811B812C813D818B
:100BD000C016D106E206F30629F4288139812D9347
:100BE0003C9311C00C191D092E093F090A831B8370
:100BF0002C833D83AE01DD0F660B770B040F151FB1
:100C0000261F371FE8014091BF035091C003609138
:100C1000C1037091C2034C195D096E097F094093AD
:100C2000BF035093C0036093C1037093C203F2D11A
:100C3000D701C6010497A109B109AE01DD0F660B0A
:100C4000770B840F951FA61FB71FCDB7DEB7E8E05F
:100C50000C945F10CF92DF92EF92FF92CF93DF93CD
:100C60006B017C01D4D1D82F83E0C816D104E104F4
:100C7000F10420F08D2FCED1CFEF11C029E22C9DB1
:100C8000C0012D9D900D112480539F4FFC01729641
:100C90000590F491E02D0995C82F8D2FBBD18C2F95
:100CA000DF91CF91FF90EF90DF90CF9008956AD3BE
:100CB0008CE091E09F938F9396D28AED91E0D5D509
:100CC000BFD21092B9031092BA031092BB031092D4
:100CD000BC031092050410920604109207041092AF
:100CE0000804E7E9F1E089EB93E00F900F9011829F
:100CF000108216AE11AE10AE13821282E55AFF4F6B
:100D00008E179F07A1F79ADBD2D2909304048093A9
:100D1000030460E070E0CB019DDF61E070E080E003
:100D200090E098DF62E070E080E090E093DF28DC04
:100D3000E091BD03F091BE0380E090E0DC013097CC
:100D400061F04281538164817581840F951FA61FD4
:100D5000B71F0190F081E02DF2CFBF93AF939F9327
:100D60008F938AE191E09F938F933DD21F921F92C0
:100D70001F921F9280E391E09F938F931F928AE0CE
:100D80008F931F9280E48F931F921F9255DC2BE567
:100D9000269FF001279FF00D1124E956FE4F81E0B8
:100DA00090E09183808338D11F921F921F921F92EF
:100DB00086E391E09F938F931F9284E18F9381E06C
:100DC0008F931F928FE09FE09F938F9335DC00D429
:100DD0008DB79EB74E960FB6F8949EBF0FBE8DBFCF
:100DE000FFCF1F93CF93DF93FA013697339708F025
:100DF00054C0663071058105910508F04EC03BE591
:100E0000369FF001379FF00D1124E956FE4F0190F7
:100E1000F081E02DEF2B09F440C036E0349FF00163
:100E2000359FF00D1124E953FC4F42815381022E6E
:100E3000000C330BC6E016E0C49FF001C59FF00D17
:100E40001124E953FC4FA081B181A217B30718F018
:100E500042815381F0CFC481D581169FD001179F65
:100E6000B00D1124A953BC4F13965C934E93129767
:100E70001596DC93CE9314972D933C931C9FD00131
:100E80001D9FB00D1124A953BC4F13967C936E93F4
:100E900012977583648381E001C08FEFDF91CF915A
:100EA0001F9108954F925F926F927F928F929F92BF
:100EB000AF92BF92CF92DF92EF92FF92CF93DF93E8
:100EC00000D000D0CDB7DEB76B017C01CA01069718
:100ED000039708F088C086E0C816D104E104F10445
:100EE00008F081C08BE58C9DF0018D9DF00D1124E3
:100EF000E956FE4F80819181892B09F474C04A0123
:100F0000052E000CAA08BB0886E0849FF001859F8F
:100F1000F00D1124E953FC4F82819381092E000CBE
:100F2000AA0BBB0B4F5F5F4F2A01550F660877086E
:100F300049825A826B827C8266E049805A806B804B
:100F40007C8084159505A605B70569F566E06C9D5E
:100F5000F0016D9DF00D1124E953FC4F5382428244
:100F60009582848231832083689DA001699D500D04
:100F70001124FA01E953FC4FD382C282649DF0012F
:100F8000659DF00D1124E953FC4FD582C482841570
:100F90009505A605B70529F180819181821B930BE8
:100FA000918380831EC0689FF001699FF00D11241A
:100FB000E953FC4F408151812417350758F0241B19
:100FC000350B428153814C015D01CA01550FAA0BBB
:100FD000BB0BB3CF2C013D0189819A81AB81BC81D0
:100FE000B5CF81E001C08FEF0F900F900F900F9061
:100FF000DF91CF91FF90EF90DF90CF90BF90AF90B7
:101000009F908F907F906F905F904F9008958FB7D3
:10101000F89408958FBF089578940895FFCF8FEFC7
:10102000089581E00895AF92BF92CF92DF92EF9240
:10103000FF921F93CF93DF936B017C01E8DF182FA2
:1010400086E0C816D104E104F10488F48BE58C9D98
:10105000F0018D9DF00D1124E956FE4F80819181A4
:10106000892B29F0C114D104E104F10421F4812F6A
:10107000D1DF8FEF9DC08091B9039091BA03A09109
:10108000BB03B091BC030197A109B1098093B903D7
:101090009093BA03A093BB03B093BC030297A1053E
:1010A000B1050CF4D5D38BE58C9D50018D9DB00C12
:1010B0001124F501E152FE4F60817181828193819B
:1010C000A7019601BAD2C0E0D0E0FE01EA0DFB1DF7
:1010D000E851FE4F60817181072E000C880B990B3F
:1010E0007EDA2296C630D10581F78BE58C9DE00132
:1010F0008D9DD00D1124C956DE4F4AAD5BAD6CAD50
:101100007DAD495F5F4F6F4F7F4F487F052E000CCD
:10111000660B770B88AD99AD092E000CAA0BBB0BA3
:101120000496A11DB11D841B950BA60BB70BD2DB3A
:10113000888199818430910581F030F48130910566
:1011400049F0029729F127C08630910551F00797A1
:1011500021F021C0198218826AD1C701B601FCD2E0
:101160001AC0CA5BDF4F8881998127E0289FF00170
:10117000299FF00D1124E354FC4F81819281A381BA
:10118000B4810196A11DB11D81839283A383B48391
:10119000C701B601B6DC8BE58C9DF0018D9DF00D8D
:1011A0001124E956FE4F11821082812F33DF81E036
:1011B000DF91CF911F91FF90EF90DF90CF90BF9084
:1011C000AF900895CF93DF93C82F21DFD82FCA3077
:1011D00011F48DE0E3D88C2FE1D88D2F1BDF81E057
:1011E000DF91CF910895A1E5B0E0E8EFF8E04DC7B9
:1011F0008E01065A1F4FF801E190F1908F0121E511
:1012000030E040E050E060E070E0CE0101960E94E6
:1012100073129801A70160E570E0CE0101960E946B
:101220007A128E010F5F1F4FF80181918F01882381
:1012300011F0C8DFF9CF81E0CF5ADF4FE6E041C7B8
:101240000F931F93CF93DF938AE694E0A0E8BB2728
:101250000196A11DB11DEC019093C4038093C303BB
:101260002FEE38E03093C6032093C503EDEBF3E097
:101270009183808319821882092E000CAA0BBB0B64
:101280004FEE58E060E070E08A019B01081B190BEB
:101290002A0B3B0B0A831B832C833D83028313831E
:1012A00024833583DF91CF911F910F910895209171
:1012B0000201309103012A30310544F5C90102963B
:1012C0009093030180930201A9014F5F5F4F66E095
:1012D000629FF001639FF00D1124E953FC4F53838B
:1012E00042838FEF9FEF9583848391838083649FF4
:1012F000F001659FF00D1124E953FC4F9383828325
:101300003583248311821082C90108958FEF9FEFE6
:1013100008958F929F92AF92BF92EF92FF920F9398
:101320001F93CF93DF934B015C018A0179016FDE3C
:10133000D82F83E088169104A104B10420F08D2FEA
:1013400069DECFEF13C029E2289DC001299D900DD1
:10135000112480539F4FFC0174960590F491E02D69
:10136000A701B8010995C82F8D2F54DE8C2FDF916E
:10137000CF911F910F91FF90EF90BF90AF909F90F2
:101380008F900895F8944CD84BD80E94C2019BCA04
:10139000CF939C012650310923303105F8F4C6E083
:1013A000C89FF001C99FF00D1124E953FC4F228121
:1013B00033812630310594F46EDBC69FF001C79F60
:1013C000F00D1124E953FC4F2FEF3FEF35832483B9
:1013D00033832283462F372F282F04C04FEF3FEF50
:1013E0002FEF9FEF642F732F822FCF9108956630D8
:1013F000710581059105C8F42BE5269FF001279F13
:10140000F00D1124E956FE4F20813181232B69F024
:1014100022E030E0318320834091030450910404A2
:101420002281DFDC04D081E008958FEF0895CF9210
:10143000DF92EF92FF928091050490910604A091B3
:101440000704B0910804181619061A061B0624F49E
:1014500081E0809309046BC0C0909301D090940107
:10146000E0909501F09096018BE58C9DF0018D9DAB
:10147000F00D1124E956FE4F80819181019729F5E5
:1014800022813381409103045091040486E0849FBB
:10149000D001859FB00D1124A953BC4F12966D91B8
:1014A0007C911397869FD001879FB00D1124A9537B
:1014B000BC4F8D919C9182179307C8F182E090E018
:1014C00091838083C701B6018CDC809103049091E5
:1014D00004045EDF609393017093940180939501FF
:1014E000909396012BE5269FD001279FB00D1124E4
:1014F000FD01E956FE4F41E050E05183408341E059
:1015000050E060E070E04093870150938801609361
:10151000890170938A01BD0165567E4F2C9DC001E3
:101520002D9D900D112485569E4F0E946A01FF90BB
:10153000EF90DF90CF90089561307105810591059E
:1015400031F06230710581059105F1F03FC0809165
:10155000050490910604A0910704B0910804AC0121
:10156000BD014F5F5F4F6F4F7F4F40930504509316
:1015700006046093070470930804892B8A2B8B2B35
:1015800019F51092090420C0809105049091060479
:10159000A0910704B0910804181619061A061B0634
:1015A000ACF40197A109B109809305049093060456
:1015B000A0930704B0930804892B8A2B8B2B21F46A
:1015C00080910904811133DF81E008958FEF089540
:1015D000CF92DF92EF92FF921F93CF93DF936B0135
:1015E0007C0115DD182F86E0C816D104E104F10452
:1015F00070F48BE58C9DF0018D9DF00D1124E95662
:10160000FE4F80819181009711F0059729F0812F7D
:1016100001DD8FEF9FEF09C0D281C381C701B60101
:10162000E6DE812FF7DC8D2F9C2FDF91CF911F916C
:10163000FF90EF90DF90CF9008958F929F92AF929E
:10164000BF92CF92DF92EF92FF92CF934B015C015A
:1016500069017A01DCDCC82F86E088169104A104B8
:10166000B10490F48BE5889DF001899DF00D112463
:10167000E956FE4F80819181009731F0DF01A05B38
:10168000BF4F2C91222321F08C2FC4DC8FEF16C08A
:10169000E45BFF4FC082D182E282F38221E02C938F
:1016A0008330910529F0079731F4C501B40154D076
:1016B000C501B4019CDE8C2FADDC81E0CF91FF90A1
:1016C000EF90DF90CF90BF90AF909F908F90089554
:1016D000CF92DF92EF92FF92CF93DF9397FD33C0CB
:1016E0006B017C01672B682B692B11F4B5D029C0E5
:1016F0008EDCD82F40918501509186016091930135
:101700007091940180919501909196019601CADBA8
:10171000C82F8F3F19F48D2F7DDC16C08091930167
:10172000909194012BE5289FF001299FF00D112441
:10173000E956FE4F84E090E09183808378DE8D2F20
:1017400069DCC1E001C0CFEF8C2FDF91CF91FF901A
:10175000EF90DF90CF900895CF92DF92EF92FF92BB
:10176000CF936B017C0153DCC82F86E0C816D104EF
:10177000E104F10488F48BE58C9DF0018D9DF00D62
:101780001124E956FE4F80819181009729F0843021
:10179000910531F0079721F08C2F3CDC8FEF24C0AE
:1017A00026E02C9DD0012D9DB00D1124A953BC4FD6
:1017B00012968D919C911397863091057CF4289F09
:1017C000F001299FF00D1124E953FC4F2081318154
:1017D0008D919C91820F931F91838083C701B601E5
:1017E00090D98C2F17DC81E0CF91FF90EF90DF90A4
:1017F000CF900895A5D917CCCF9361E070E080E039
:1018000090E09ADEC6E08091850190918601C89FA4
:10181000F001C99FF00D1124E953FC4F228133815F
:101820002630310574F4C29FF001C39FF00D1124DE
:10183000E953FC4F20813181232B19F4A9DDD7DD39
:10184000E2CF62E070E080E090E076DECF91089534
:1018500083EB91E00AD0E2CBCF93D9DBC82FE7DD51
:101860008C2FD8DB81E0CF91089508950F931F93BB
:1018700000E010E09801041715072607370764F405
:10188000DC01ED91CD010F5F1F4F2F4F3F4FE11155
:10189000F2CFB801C90104C06FEF7FEF8FEF9FEF68
:1018A0001F910F910895A6E0B0E0E8E5FCE0E1C3E8
:1018B000182F9C831B0169017A01A9DB082F40E1E5
:1018C00050E060E070E0812F9C81D0DF4B015C0133
:1018D00041E050E060E070E0C101C8DF2B013C0155
:1018E0002FEF82169206A206B20649F16F3F7F4F94
:1018F0008F4F9F4F21F153E0C516D104E104F1044D
:10190000F0F480910A0490910B04A0910C04B09122
:101910000D0484309105A105B1058CF419831C8157
:101920001A8325E1289FA001299F500D11245E8371
:101930004D8320E030E040E050E0BA0104C0802F49
:1019400069DB8FEF42C0481559056A057B059CF499
:10195000E981FA811191FA83E983ED81FE81E20F39
:10196000F31FE25FFB4F10834F5F5F4F6F4F7F4F5F
:101970002F5F3F4FE8CF14141504160417045CF4CE
:10198000F101208135E1389FF001399FF00D1124DC
:10199000E25FFB4F208B25E1289FF001299FF00D8E
:1019A0001124E25FFB4FC18AD28AE38AF48A01964E
:1019B000A11DB11D80930A0490930B04A0930C0405
:1019C000B0930D04802F26DB81E02696E2E16DC303
:1019D000A0E2B0E0EDEEFCE050C386E0EBE3F1E026
:1019E000DE015B9601900D928A95E1F710920A0450
:1019F00010920B0410920C0410920D048BE491E0F1
:101A000034DF80EDA82E80E0B82E88E090E09C01C5
:101A1000205D30404901DE015B968E010F5F1F4F54
:101A2000C12CD12C760138018D91F8018193882346
:101A300039F03FEFC31AD30AE30AF30A8F01F4CF58
:101A4000B4016A0D7B1D60537F4F4AE050E0CE0128
:101A500041963AD5FE017196BFEFCB1ADB0AEB0A2D
:101A6000FB0A20E1C216D104E104F10464F481917F
:101A70009FEB980F9A3108F4805ED8018D938D0109
:101A80008111EACF09C030E1C316D104E104F104A9
:101A900019F081E791E00DC0F5012591359145914F
:101AA00055916FE271E0C301FEDE8F3F19F486E9C4
:101AB00091E0DBDEF9E2AF0EB11C2BE4A21621E0CF
:101AC000B20609F0A8CF2FEF3FEFA9016FE271E056
:101AD0008BE391E0E8DE81E0A096EEE0EAC24F926F
:101AE0005F926F927F928F929F92AF92BF92DF929E
:101AF000EF92FF920F931F93CF93DF9300D000D00C
:101B00001F92CDB7DEB7E0900A04F0900B0400916D
:101B10000C0410910D04E982FA820B831C832EE0E1
:101B200034E0812C912C5401E980FA800B811C81D6
:101B30008E149F04A006B106ACF47C01F901412C7F
:101B4000512C3201D70141914423C1F00FEFE01A2B
:101B5000F00A5C9145130AC01FEF411A510A610A4D
:101B6000710AF0CF6FEF7FEFCB0165C00FEF801AE6
:101B7000900AA00AB00A2B5E3F4FD6CF7D83D62EA7
:101B800040E150E060E070E071DE698385E1889DAE
:101B90008001899D100D1124025E1B4F40E150E031
:101BA00060E070E0C80162DEA9812A2FAA0F330B22
:101BB000440B550B24193509460957092B013C01E3
:101BC000B1E04B1A510861087108420E531E641EA1
:101BD000751EE1E14E165104610471041CF62B01DF
:101BE0003C01D801ED2DFD8181E0481A51086108C2
:101BF000710814141504160417041CF48D918193B4
:101C0000F3CF12161306140615064CF4D7018D9166
:101C10007D0181932150310941095109F2CF85E1BC
:101C2000889DF001899DF00D1124E25FFB4F6189D1
:101C30007289838994890F900F900F900F900F9065
:101C4000DF91CF911F910F91FF90EF90DF90BF90A8
:101C5000AF909F908F907F906F905F904F9008957E
:101C6000CF92DF92EF92FF92FB01C12CD12C760133
:101C7000C216D306E406F50664F46191DC016D93A7
:101C8000CD01662341F0BFEFCB1ADB0AEB0AFB0A5A
:101C9000EFCF8FEF01C081E0FF90EF90DF90CF900A
:101CA0000895A0E1B0E0E6E5FEE0E9C18B0149015D
:101CB0005A0120E130E040E050E0BC01CE01019645
:101CC000CFDF8F3FF1F0C12CD12C76010DC020E188
:101CD00030E040E050E0B801CE010196C1DF8FEF67
:101CE000C81AD80AE80AF80A80910A0490910B04ED
:101CF000A0910C04B0910D04C816D906EA06FB06A3
:101D000014F08FEF0AC0B801CE010196E8DE681525
:101D100079058A059B05D9F2862F6096ECE0CBC148
:101D2000A0E1B0E0E5E9FEE0B2C1FC01CB018A012F
:101D30002591359145915591BE016F5F7F4FB1DF80
:101D4000682F880F770B880B990B6F3F2FEF720767
:101D50008207920731F09801AE014F5F5F4FD9DAE9
:101D600001C08FEF6096E4E0AEC1A0E0B0E0EAEB26
:101D7000FEE089C1C0E0D0E000E010E080916404A2
:101D8000909165049C01201B310B890180916204B4
:101D9000909163049C012C1B3D0BE901B80180E08C
:101DA00090E0A1D224EE3BEC46E152E42AD320E0BD
:101DB00030E040EA51E42FD26B017C01BE0180E0AB
:101DC00090E091D224EE3BEC46E152E41AD320E0BD
:101DD00030E040EA51E41FD29B01AC01C701B601DB
:101DE000B6D120E030E04CE951E415D29B01AC01C2
:101DF0006091540170915501809156019091570165
:101E0000A6D160935401709355018093560190932D
:101E1000570162E370E080E090E05ADCAFCF4BD036
:101E200063E070E082E090E066D01F921F9281E450
:101E300091E09F938F931F9283E18F9381E08F9323
:101E400082E08F9385EB9EE09F938F930E941C030B
:101E5000BFDB1F921F9285E491E09F938F931F92A7
:101E600084E18F931F9280E48F9382EE9FE09F9393
:101E70008F930E941C03ACDB1F921F9289E491E0B8
:101E80009F938F931F928FE08F931F9280E88F9381
:101E900089ED9FE09F938F930E941C0399DB6AD08A
:101EA0008DB79EB74E960FB6F8949EBF0FBE8DBFEE
:101EB00080E090E00895E0910A01F0910B01158215
:101EC00089E1848386E0828388E181830895E091BB
:101ED0000A01F0910B01908195FFFDCF8683089553
:101EE000CF93DF93EC018991882311F0F0DFFBCFD2
:101EF000DF91CF910895A0E0B0E0E0E8FFE0C2C03C
:101F00008B01CDB6DEB62DB73EB7261B370B0FB60D
:101F1000F8943EBF0FBE2DBFEDB7FEB731967F01DF
:101F200020E3B22E2AE030E0AF014E195F094017DE
:101F3000510764F41816190634F4B9016BD0805DAA
:101F40008083CB0101C0B0823196EECF0E0D1F1DF4
:101F500001501109C8018E199F0997FD04C0F801AD
:101F60008081B5DFF5CF0FB6F894DEBE0FBECDBED3
:101F7000E9E0A4C0E0910801F0910901808180624C
:101F8000808368EC70E080E090E0A2DBE0910601E5
:101F9000F091070180818062808368EC70E080E0CE
:101FA00090E096DBE0910601F091070180818F7D42
:101FB000E7CF8DE491E094DF68EC70E080E090E0A2
:101FC00087DBF7CF20E080E0E0910401F09105018C
:101FD000C081C470D081D8708C1749F080916204A0
:101FE00090916304019690936304809362042D178B
:101FF00049F0809164049091650401969093650482
:102000008093640464E170E080E090E061DB2D2F58
:102010008C2FDACF97FB072E16F4009406D077FDAD
:1020200008D05ED007FC05D03EF4909581959F4F77
:102030000895709561957F4F0895052E97FB16F4CE
:1020400000940FD057FD05D05FD007FC02D046F4B6
:1020500008C050954095309521953F4F4F4F5F4FA9
:10206000089590958095709561957F4F8F4F9F4F04
:1020700008952F923F924F925F926F927F928F922C
:102080009F92AF92BF92CF92DF92EF92FF920F9307
:102090001F93CF93DF93CDB7DEB7CA1BDB0B0FB611
:1020A000F894DEBF0FBECDBF09942A8839884888CE
:1020B0005F846E847D848C849B84AA84B984C88464
:1020C000DF80EE80FD800C811B81AA81B981CE0F5B
:1020D000D11D0FB6F894DEBF0FBECDBFED01089540
:1020E000AA1BBB1B51E107C0AA1FBB1FA617B7073E
:1020F00010F0A61BB70B881F991F5A95A9F780955A
:102100009095BC01CD010895A1E21A2EAA1BBB1B1C
:10211000FD010DC0AA1FBB1FEE1FFF1FA217B307B3
:10212000E407F50720F0A21BB30BE40BF50B661FC9
:10213000771F881F991F1A9469F76095709580958D
:1021400090959B01AC01BD01CF0108955058BB276C
:10215000AA270ED01CC10DD130F012D120F031F4DD
:102160009F3F11F41EF402C10EF4E095E7FBF8C0A6
:10217000E92F1ED180F3BA1762077307840795070A
:1021800018F071F49EF536C10EF4E0950B2EBA2FBF
:10219000A02D0B01B90190010C01CA01A00111246D
:1021A000FF27591B99F0593F50F4503E68F11A1619
:1021B000F040A22F232F342F4427585FF3CF4695AA
:1021C00037952795A795F0405395C9F77EF41F16CC
:1021D000BA0B620B730B840BBAF09150A1F0FF0F96
:1021E000BB1F661F771F881FC2F70EC0BA0F621F82
:1021F000731F841F48F4879577956795B795F79572
:102200009E3F08F0B3CF9395880F08F09927EE0F03
:102210009795879508950CD0BAC0B2D040F0A9D058
:1022200030F021F45F3F19F09BC05111E4C09EC013
:10223000BFD098F39923C9F35523B1F3951B550BE0
:10224000BB27AA2762177307840738F09F5F5F4F89
:10225000220F331F441FAA1FA9F333D00E2E3AF0CA
:10226000E0E830D091505040E695001CCAF729D0E4
:10227000FE2F27D0660F771F881FBB1F2617370733
:102280004807AB07B0E809F0BB0B802DBF01FF2763
:1022900093585F4F2AF09E3F510568F061C0ABC074
:1022A0005F3FECF3983EDCF3869577956795B7959D
:1022B000F7959F5FC9F7880F911D9695879597F9B8
:1022C0000895E1E0660F771F881FBB1F6217730731
:1022D0008407BA0720F0621B730B840BBA0BEE1F46
:1022E00088F7E0950895E89409C097FB3EF490952F
:1022F0008095709561957F4F8F4F9F4F9923A9F0DF
:10230000F92F96E9BB279395F6958795779567956D
:10231000B795F111F8CFFAF4BB0F11F460FF1BC0B1
:102320006F5F7F4F8F4F9F4F16C0882311F096E944
:1023300011C0772321F09EE8872F762F05C06623F2
:1023400071F096E8862F70E060E02AF09A95660FAB
:10235000771F881FDAF7880F9695879597F9089564
:1023600097F99F6780E870E060E008959FEF80EC48
:10237000089500240A9416161706180609060895EB
:1023800000240A9412161306140605060895092E51
:102390000394000C11F4882352F0BB0F40F4BF2BC0
:1023A00011F460FF04C06F5F7F4F8F4F9F4F089500
:1023B00057FD9058440F551F59F05F3F71F04795F6
:1023C000880F97FB991F61F09F3F79F087950895DB
:1023D000121613061406551FF2CF4695F1DF08C0FA
:1023E000161617061806991FF1CF86957105610517
:1023F00008940895E894BB2766277727CB0197F9BF
:1024000008950BD0C4CFB5DF28F0BADF18F09523BC
:1024100009F0A6CFABCF1124EECFCADFA0F3959F72
:10242000D1F3950F50E0551F629FF001729FBB27BB
:10243000F00DB11D639FAA27F00DB11DAA1F649F67
:102440006627B00DA11D661F829F2227B00DA11D1A
:10245000621F739FB00DA11D621F839FA00D611DA0
:10246000221F749F3327A00D611D231F849F600DC1
:10247000211D822F762F6A2F11249F5750408AF0FA
:10248000E1F088234AF0EE0FFF1FBB1F661F771F86
:10249000881F91505040A9F79E3F510570F060CFC2
:1024A000AACF5F3FECF3983EDCF38695779567956E
:1024B000B795F795E7959F5FC1F7FE2B880F911DA4
:1024C0009695879597F90895FB01DC01415050409E
:1024D00048F005900D920020C9F701C01D924150AF
:1024E0005040E0F70895DC0101C06D934150504029
:1024F000E0F70895AEE0B0E0EFE7F2E1C8CD8C017F
:10250000FA0186E08C831A83098377FF02C060E0BA
:1025100070E8CB0101979E838D83A901BF01CE0195
:10252000019611D04D815E8157FD0AC02F813885FB
:10253000421753070CF49A01F801E20FF31F1082BF
:102540002E96E4E0C0CDABE0B0E0E8EAF2E191CD58
:102550006C017B018A01FC0117821682838181FF55
:10256000BFC1CE0101963C01F6019381F70193FDB5
:10257000859193FF81917F01882309F4ADC1853254
:1025800039F493FD859193FF81917F01853221F488
:10259000B60190E0C0D1E8CF912C212C312CFFE185
:1025A000F315D8F08B3279F038F4803279F0833239
:1025B000A1F4232D20611DC08D3261F0803369F4B8
:1025C000232D216016C0832D8260382EE32DE46018
:1025D0003E2E2AC0F32DF8601DC037FC2DC020ED23
:1025E000280F2A3040F08E32B9F436FC75C1232D05
:1025F0002064322E19C036FE06C08AE0989E200D57
:102600001124922E11C0EAE02E9E200D1124222EBC
:10261000F32DF0623F2E08C08C3621F4832D8068A4
:10262000382E02C0883641F4F70193FD859193FF5F
:1026300081917F018111B3CF982F9F7D9554933065
:1026400028F40C5F1F4F9FE399830DC0833631F050
:10265000833771F0833509F055C020C0F8018081BF
:1026600089830E5F1F4F88248394912C530112C0DD
:102670002801F2E04F0E511CF801A080B18036FE17
:1026800003C0692D70E002C06FEF7FEFC50138D144
:102690004C018201F32DFF773F2E15C0280122E067
:1026A000420E511CF801A080B18036FE03C0692D96
:1026B00070E002C06FEF7FEFC50117D14C01F32D21
:1026C000F0683F2E820133FC19C0822D90E08816FD
:1026D0009906A0F4B60180E290E01DD12A94F5CFCE
:1026E000F50137FC859137FE81915F01B60190E0DD
:1026F00012D121102A9421E0821A910881149104A8
:1027000079F7E1C0843611F0893639F5F80137FEE2
:1027100007C060817181828193810C5F1F4F08C067
:1027200060817181072E000C880B990B0E5F1F4F83
:10273000F32DFF763F2E97FF09C0909580957095F9
:1027400061957F4F8F4F9F4FF0683F2E2AE030E01A
:10275000A3011DD1882E861844C0853731F4232D5E
:102760002F7EB22E2AE030E025C0932D997FB92E1E
:102770008F36C1F018F4883579F0AEC0803719F083
:10278000883721F0A9C0E92FE061BE2EB4FE0DC04C
:10279000FB2DF460BF2E09C034FE0AC0292F26602D
:1027A000B22E06C028E030E005C020E130E002C0D3
:1027B00020E132E0F801B7FE07C0608171818281BB
:1027C00093810C5F1F4F06C06081718180E090E0B3
:1027D0000E5F1F4FA301DBD0882E8618FB2DFF77DD
:1027E0003F2E36FE0DC0232D2E7FA22E891458F4C5
:1027F00034FE0BC032FC09C0832D8E7EA82E05C08E
:10280000B82CA32C03C0B82C01C0B92CA4FE0FC057
:10281000FE01E80DF11D8081803321F49A2D997E0F
:10282000A92E09C0A2FE06C0B394B39404C08A2D99
:10283000867809F0B394A3FC10C0A0FE06C0B214C1
:1028400080F4280C922C9B180DC0B21458F4B601D9
:1028500080E290E060D0B394F8CFB21418F42B1853
:1028600002C0982C212CA4FE0FC0B60180E390E09A
:1028700052D0A2FE16C0A1FC03C088E790E002C0BF
:1028800088E590E0B6010CC08A2D867851F0A1FE53
:1028900002C08BE201C080E2A7FC8DE2B60190E0AD
:1028A0003AD0891430F4B60180E390E034D09A94A1
:1028B000F8CF8A94F301E80DF11D8081B60190E014
:1028C0002AD08110F6CF222009F44ECEB60180E244
:1028D00090E021D02A94F7CFF6018681978102C03B
:1028E0008FEF9FEF2B96E2E1E0CBFC01059061506A
:1028F00070400110D8F7809590958E0F9F1F089516
:10290000FC016150704001900110D8F780959095BE
:102910008E0F9F1F08950F931F93CF93DF93FB019B
:10292000238121FD03C08FEF9FEF2CC022FF16C033
:1029300046815781248135814217530744F4A08191
:10294000B1819D012F5F3F4F318320838C9326817E
:1029500037812F5F3F4F3783268314C08B01EC01F3
:10296000FB010084F185E02D0995892BE1F6D80162
:1029700016968D919C911797019617969C938E931E
:102980001697CE01DF91CF911F910F910895FA0113
:10299000AA27283051F1203181F1E8946F936E7F9E
:1029A0006E5F7F4F8F4F9F4FAF4FB1E03ED0B4E08F
:1029B0003CD0670F781F891F9A1FA11D680F791FD0
:1029C0008A1F911DA11D6A0F711D811D911DA11DE1
:1029D00020D009F468943F912AE0269F11243019F1
:1029E000305D3193DEF6CF010895462F4770405D8C
:1029F0004193B3E00FD0C9F7F6CF462F4F70405D3B
:102A00004A3318F0495D31FD4052419302D0A9F795
:102A1000EACFB4E0A6959795879577956795BA958F
:102A2000C9F700976105710508959B01AC010A2E55
:102A300006945795479537952795BA95C9F7620F2C
:0A2A4000731F841F951FA01D089549
:102A4A00C0000600290025002400C000201B5B30BE
:102A5A006D1B5B324A1B5B3B48000A467265654D3B
:102A6A00454D3A256420286279746573290A0A005B
:102A7A006E756C6C70006D61696E002F6465762FDF
:102A8A00006C6F6300775F7200735F6F000A0D005E
:00000001FF
