:100000004AC100000C94440F0C94650F62C10000BB
:1000100060C100005EC100005CC100005AC1000068
:1000200058C1000056C1000054C1000052C1000078
:1000300050C100004EC100000BC200004AC10000C8
:1000400048C1000046C10000B2C1000042C100002A
:1000500040C100003EC100003CC100003AC10000A8
:1000600038C1000036C100000C944B010C94440FC1
:100070000C94650F0C9469010C9469010C9469014E
:100080000C9469010C9469010C9469010C94690148
:100090000C9469010C9469010C9469010C94690138
:1000A0000C9428020C9469010C9469010C94690168
:1000B0000C94D7010C9469010C9469010C946901AA
:1000C0000C9469010C9469010C9469010C94690108
:1000D0000000000000000000434F4E534F4C45000D
:1000E000000012081208120812081208100812085C
:1000F00012081008000010080001000000010000B4
:10010000004E554C4C44455600000012081208128F
:10011000081208120810081208120810080000102F
:10012000080002000000000000004E414D45535001
:1001300041434500ED0C9A0E1008100810081008F5
:1001400010081008100800001008006E616D696E3C
:100150006974202864657669636573293A0D0A001D
:100160004552524F522047455453544B2025730A51
:10017000006E616D6573706163653A2064657669D0
:100180006365206E616D6520257320746F6F206C30
:100190006F6E670D0A006E616D6573706163653A1D
:1001A0002063616E6E6F74206D6F756E74202564B0
:1001B0000D0A000A0A416C6C20757365722070721A
:1001C0006F636573736573206861766520636F6D17
:1001D000706C657465642E0A0A000A57656C636F5B
:1001E0006D6520746F2058696E75210A0A0D0958D3
:1001F000696E75204F5320436F7079726967687418
:100200002028632920323031322C20323031350A17
:100210000D09446F75676C617320452E20436F6D27
:10022000657220616E64204352432050726573737F
:100230002C20496E632E0A0A0D0958696E75204FED
:100240005320666F72204156522061746D6567615C
:10025000333238702076302E312028632920323016
:1002600032300A0D0952616661656C2049676E6122
:1002700063696F205A7572697461203C72616661AE
:100280004066692E756E636F6D612E6564752E61B3
:10029000723E0A0A0D0011241FBECFEFD8E0DEBF68
:1002A000CDBF11E0A0E0B1E0E8E0FCE302C00590C2
:1002B0000D92A438B107D9F724E0A4E8B1E001C059
:1002C0001D92A339B207E1F70C9457060E944A1019
:1002D000FFC296CEFF93EF93FC0100820FB6F89415
:1002E00004A21182228233824482558266827782FE
:1002F00080869186A286B386C486D586E686F786F2
:10030000008B118B228B338B448B558B668B778BB9
:10031000808F918FA28FB38FC48FD58F0F90068E51
:100320000F90078E0DB600A20EB601A2FB0100A031
:100330000DBE01A00EBE078C0F92068C0F92D58DBC
:10034000C48DB38DA28D918D808D778966895589F5
:1003500044893389228911890089F784E684D58408
:10036000C484B384A284918480847780668055801D
:10037000448033802280118004A00FBE0080EF9162
:10038000FF910895E0910001F0910101158289E14A
:10039000848386E0828388E181830895E09100016F
:1003A000F0910101908195FFFDCF868308951F9202
:1003B0000F920FB60F9211248F938091C6008093F5
:1003C00088018F910F900FBE0F901F901895A4E099
:1003D000B0E0EDEEF1E00C94491819821A821B820C
:1003E0001C8219821A821B821C8209811A812B812C
:1003F0003C81061717072807390770F400000981A8
:100400001A812B813C810F5F1F4F2F4F3F4F098374
:100410001A832B833C83E9CF2496E4E00C9465187F
:1004200080E284B92D9A60E47DE083E090E0CFDF44
:100430002D9860E47DE083E090E0C9CF1092B10197
:100440001092B2011092B3011092B40181E00895AC
:100450001F920F920FB60F9211242F933F934F9339
:100460005F936F937F938F939F93AF93BF93EF931C
:10047000FF938091BB019091BC01A091BD01B0910F
:10048000BE010196A11DB11D8093BB019093BC01DB
:10049000A093BD01B093BE01883E9340A105B10574
:1004A000D8F08091BF019091C001A091C101B0919D
:1004B000C2010196A11DB11D8093BF019093C0019F
:1004C000A093C101B093C2011092BB011092BC0174
:1004D0001092BD011092BE018091B5019091B601BC
:1004E00026E0289FF001299FF00D1124E456FC4FCF
:1004F000828193818530910584F4289FF001299FA2
:10050000F00D1124E456FC4F808191810197918375
:100510008083892B11F40E94FF0B8091B701909189
:10052000B801A091B901B091BA010197A109B1092F
:1005300049F08093B7019093B801A093B901B093AB
:10054000BA010DC081E090E0A0E0B0E08093B70177
:100550009093B801A093B901B093BA016BD7FF9102
:10056000EF91BF91AF919F918F917F916F915F912B
:100570004F913F912F910F900FBE0F901F901895A4
:1005800099D69093B6018093B50181E090E0A0E008
:10059000B0E08093B7019093B801A093B901B093F4
:1005A000BA011092BF011092C0011092C1011092C5
:1005B000C2011092BB011092BC011092BD011092B9
:1005C000BE0185B5836085BD84B5826084BD8FE33F
:1005D00087BDEEE6F0E08081826080830895CF924F
:1005E000DF92EF92FF92CF93DF936B017C0110D5E6
:1005F000D82F83E0C816D104E104F10420F08D2F38
:100600000AD5CFEF11C029E22C9DC0012D9D900D80
:10061000112480539F4FFC0176960590F491E02DB4
:100620000995C82F8D2FF7D48C2FDF91CF91FF9094
:10063000EF90DF90CF900895A6E0B0E0E2E2F3E023
:100640000C943B182B8D29838C8CED8CFE8C09A18E
:100650003AA13E83DDD4982E40E4E416F1041CF464
:1006600070E4E72EF12C83E0E80EF11C9CEFE92208
:1006700027010F2C000C66087708C301B20169D26C
:100680001C01019679F480E691E00E94380C892DD6
:10069000C2D4FFEFFA832FEF2B833FEF3C834FEF62
:1006A0004D8309C13091840120918501809186019B
:1006B00090918701A12CB12C1BE5632F722F25E0AF
:1006C00030E040E050E00E94C1176B017C016A837A
:1006D000DB82EC82FD82169FF001179FF00D112442
:1006E000E953FE4F80819181B701A6014F5F5F4FB3
:1006F0006F4F7F4F892B79F440938401509385018C
:1007000060938601709387018FEFC816D806E806BC
:10071000F806A1F4B8CF342F252FCB01EFEFAE1A96
:10072000BE0AF5E0AF16B10441F640938401509340
:1007300085016093860190938701A5CF2F8D38A105
:10074000121613060CF09FCF80918E0390918F03A9
:10075000A0919003B09191030196A11DB11D8093CA
:100760008E0390938F03A0939003B093910385E041
:1007700090E0918380833383228331AE20AE42AEFA
:1007800053AE64AE75AEDF01AB5BBF4F1C92A02FC2
:10079000BE818F0180E090E02D91F801E80FF91FF4
:1007A00026AF222321F0019687309105A9F72BE58A
:1007B0002C9DC0012D9D900D1124FC01E953FE4F8D
:1007C0005F01EA5BFF4F8FEF9FEF91838083B8D18A
:1007D000F501E85BFF4F60837183828393833896D2
:1007E00010823196118210823296118210823296D6
:1007F000118210828AEAF10180838BA19CA1F5010C
:1008000093A782A720E030E0F801E20FF31F1482E3
:100810002F5F3F4F26323105B9F72BE52C9DF001B4
:100820002D9DF00D1124E953FE4F298124AB85AA9B
:1008300026A387A220E820A7DE01959620E030E0DD
:100840002817390764F44D915D91F901EE0FFF1FF0
:10085000E00FF11F55A744A72F5F3F4FF1CFFC01D9
:100860007696EE0FFF1F4BE54C9D90014D9D300D90
:100870001124E20FF31FE953FE4F11821082F90198
:10088000E953FE4F848F958F2D503E4F228F338F2B
:100890008DEF9BE0D10111978C9311979C93119749
:1008A00039813C9311978C9245E0241A310824A297
:1008B00035A2892DB0D36A817B818C819D8126965A
:1008C000E2E10C94571861E070E080E090E0089558
:1008D00037D1AAC3A0E0B0E0E0E7F4E00C944118FF
:1008E000EC016A017B0194D3C114D104E104F10449
:1008F00009F447C02091980330919903C217D30798
:1009000008F43FC020919A0330919B032C173D07B8
:10091000C0F197E0C90ED11CE11CF11C98EFC9226F
:10092000A601DD0C660B770BE0919203F091930327
:10093000A2E9B3E0309741F0EC17FD0740F5DF0185
:100940000190F081E02DF6CF93E0A239B907D1F103
:100950001296CD90DD90ED90FC9015978D010B2EA9
:10096000000C220B330B0C0D1D1D2E1D3F1D6E01A7
:100970000D2E000CEE08FF08C016D106E206F306A5
:1009800018F449D38FEF82C0309741F41EC093E032
:10099000A239B907E9F600E010E098016E010D2ECA
:1009A000000CEE08FF08C40ED51EE61EF71E4F0110
:1009B0000F2E000CAA08BB088C149D04AE04BF04C3
:1009C00020F4DFCF00E010E09801C0909403D090B5
:1009D0009503E0909603F0909703C40ED51EE61E93
:1009E000F71EC0929403D0929503E0929603F09282
:1009F00097036E010D2E000CEE08FF08C016D106FD
:100A0000E206F30691F412960D911D912D913C9101
:100A10001597400F511F621F731F12964D935D93E0
:100A20006D937C931597ED0108C0F983E8834A83A1
:100A30005B836C837D83CD93DC934A815B816C8186
:100A40007D818E010D2E000C220B330B040F151F20
:100A5000261F371F6F010F2E000CEE08FF080C1524
:100A60001D052E053F0581F4028113812481358106
:100A7000400F511F621F731F4A835B836C837D830A
:100A80002081318139832883C6D281E0CDB7DEB79A
:100A9000ECE00C945D1826E0AC01249FC001259F7A
:100AA000900D1124FC01E456FC4F428153814530E6
:100AB00051051CF5BA01052E000C880B990B249FDB
:100AC000F001259FF00D1124E456FC4FA281B38163
:100AD00044815581249FF001259FF00D1124E45697
:100AE000FC4FB383A2832A9FF0012B9FF00D1124AA
:100AF000E456FC4F5583448308956FEF7FEFCB019D
:100B0000089546E0469FF001479FF00D1124E456FA
:100B1000FC4FA281B38124813581429FF001439F24
:100B2000F00D1124E456FC4FB383A2834A9FF001D9
:100B30004B9FF00D1124E456FC4F35832483089518
:100B40006091C3017091C4018091C5019091C6016B
:100B50000895A0E0B0E0EFEAF5E00C9445186B01D1
:100B60007C0156D2C114D104E104F10449F197E0AB
:100B7000C90ED11CE11CF11C98EFC9220D2C000CF0
:100B8000EE08FF08E0919203F0919303A0E0B0E03B
:100B9000C0E0D0E022E933E0309781F04281538118
:100BA000648175814C155D056E057F0510F0D901D6
:100BB000EF019F010190F081E02DEECF209721F40D
:100BC0002AD28FEF9FEF41C00A811B812C813D818A
:100BD000C016D106E206F30629F4288139812D9347
:100BE0003C9311C00C191D092E093F090A831B8370
:100BF0002C833D83AE01DD0F660B770B040F151FB1
:100C0000261F371FE801409194035091950360918E
:100C10009603709197034C195D096E097F09409303
:100C20009403509395036093960370939703F3D1C5
:100C3000D701C6010497A109B109AE01DD0F660B0A
:100C4000770B840F951FA61FB71FCDB7DEB7E8E05F
:100C50000C946118CF92DF92EF92FF92CF93DF93C3
:100C60006B017C01D5D1D82F83E0C816D104E104F3
:100C7000F10420F08D2FCFD1CFEF11C029E22C9DB0
:100C8000C0012D9D900D112480539F4FFC01729641
:100C90000590F491E02D0995C82F8D2FBCD18C2F94
:100CA000DF91CF91FF90EF90DF90CF9008956DD3BB
:100CB00080E191E09F938F9397D28AED91E0D8D510
:100CC000C2D210928E0310928F0310929003109252
:100CD00091031092D4031092D5031092D603109270
:100CE000D703E7ECF1E08EE893E00F900F901182CC
:100CF000108216AE11AE10AE13821282E55AFF4F6B
:100D00008E179F07A1F79ADBD5D29093D3038093D8
:100D1000D20360E070E0CB019DDF61E070E080E035
:100D200090E098DF62E070E080E090E093DF28DC04
:100D3000E0919203F091930380E090E0DC01309722
:100D400061F04281538164817581840F951FA61FD4
:100D5000B71F0190F081E02DF2CFBF93AF939F9327
:100D60008F938EE191E09F938F933ED21F921F92BB
:100D70001F921F9284E391E09F938F931F928AE0CA
:100D80008F931F9280E48F931F921F9255DC2BE567
:100D9000269FF001279FF00D1124E953FE4F81E0BB
:100DA00090E09183808339D11F921F921F921F92EE
:100DB0008AE391E09F938F931F9284E18F9381E068
:100DC0008F9388EB8F938AE490E19F938F9334DC29
:100DD00002D48DB79EB74E960FB6F8949EBF0FBE45
:100DE0008DBFFFCF1F93CF93DF93FA0135973397D2
:100DF00008F054C0653071058105910508F04EC0BA
:100E00003BE5369FF001379FF00D1124E953FE4F6B
:100E10000190F081E02DEF2B09F440C036E0349FC3
:100E2000F001359FF00D1124E456FC4F42815381AF
:100E3000022E000C330BC6E016E0C49FF001C59FE4
:100E4000F00D1124E456FC4FA081B181A217B30725
:100E500018F042815381F0CFC481D581169FD00113
:100E6000179FB00D1124A456BC4F13965C934E935C
:100E700012971596DC93CE9314972D933C931C9F59
:100E8000D0011D9FB00D1124A456BC4F13967C9326
:100E90006E9312977583648381E001C08FEFDF91B9
:100EA000CF911F9108954F925F926F927F928F9290
:100EB0009F92AF92BF92CF92DF92EF92FF92CF9329
:100EC000DF9300D000D0CDB7DEB76B017C01CA0143
:100ED0000597039708F088C085E0C816D104E1049F
:100EE000F10408F081C08BE58C9DF0018D9DF00D23
:100EF0001124E953FE4F80819181892B09F474C03C
:100F00004A01052E000CAA08BB0886E0849FF00168
:100F1000859FF00D1124E456FC4F82819381092EA8
:100F2000000CAA0BBB0B4F5F5F4F2A01550F6608E1
:100F3000770849825A826B827C8266E049805A80B7
:100F40006B807C8084159505A605B70569F566E07C
:100F50006C9DF0016D9DF00D1124E456FC4F538201
:100F600042829582848231832083689DA001699D9D
:100F7000500D1124FA01E456FC4FD382C282649DC5
:100F8000F001659DF00D1124E456FC4FD582C4821A
:100F900084159505A605B70529F180819181821BED
:100FA000930B918380831EC0689FF001699FF00DB1
:100FB0001124E456FC4F408151812417350758F025
:100FC000241B350B428153814C015D01CA01550F31
:100FD000AA0BBB0BB3CF2C013D0189819A81AB8158
:100FE000BC81B5CF81E001C08FEF0F900F900F90C3
:100FF0000F90DF91CF91FF90EF90DF90CF90BF9057
:10100000AF909F908F907F906F905F904F900895DA
:101010008FB7F89408958FBF089578940895FFCFFF
:101020008FEF089581E00895AF92BF92CF92DF9243
:10103000EF92FF921F93CF93DF936B017C01E8DF68
:10104000182F85E0C816D104E104F10488F48BE57B
:101050008C9DF0018D9DF00D1124E953FE4F808190
:101060009181892B29F0C114D104E104F10421F408
:10107000812FD1DF8FEF9DC080918E0390918F03E0
:10108000A0919003B09191030197A109B1098093B8
:101090008E0390938F03A0939003B09391030297D4
:1010A000A105B1050CF4D7D38BE58C9D50018D9D26
:1010B000B00C1124F501E15FFD4F608171818281E7
:1010C0009381A7019601BCD2C0E0D0E0FE01EA0DF9
:1010D000FB1DE85EFD4F60817181072E000C880BBF
:1010E000990B7DDA2296C630D10581F78BE58C9D70
:1010F000E0018D9DD00D1124C953DE4F4AAD5BAD8B
:101100006CAD7DAD495F5F4F6F4F7F4F487F052EC0
:10111000000C660B770B88AD99AD092E000CAA0B5D
:10112000BB0B0496A11DB11D841B950BA60BB70B21
:10113000D1DB888199818430910581F030F4813050
:10114000910549F0029729F127C08630910551F0A9
:10115000079721F021C0198218826CD1C701B6010E
:10116000FED21AC0CA5BDF4F8881998127E0289F91
:10117000F001299FF00D1124EE56FC4F81819281E0
:10118000A381B4810196A11DB11D81839283A383A4
:10119000B483C701B601B5DC8BE58C9DF0018D9D54
:1011A000F00D1124E953FE4F11821082812F33DF9D
:1011B00081E0DF91CF911F91FF90EF90DF90CF9072
:1011C000BF90AF900895CF93DF93C82F21DFD82F22
:1011D000CA3011F48DE0E2D88C2FE0D88D2F1BDFC0
:1011E00081E0DF91CF910895A1E5B0E0EAEFF8E06A
:1011F0000C9447188E01065A1F4FF801E190F190A8
:101200008F0121E530E040E050E060E070E0CE0189
:1012100001960E94521B9801A70160E570E0CE0183
:1012200001960E94591B8E010F5F1F4FF80181919B
:101230008F01882311F0C7DFF9CF81E0CF5ADF4F4C
:10124000E6E00C9463180F931F93CF93DF9383E929
:1012500094E0A0E8BB270196A11DB11DEC0190937D
:101260009903809398032FEE38E030939B032093EB
:101270009A03E2E9F3E09183808319821882092EB0
:10128000000CAA0BBB0B4FEE58E060E070E08A0147
:101290009B01081B190B2A0B3B0B0A831B832C8316
:1012A0003D830283138324833583DF91CF911F9184
:1012B0000F910895209102013091030129303105E9
:1012C00044F5C90102969093030180930201A9019C
:1012D0004F5F5F4F66E0629FF001639FF00D112446
:1012E000E456FC4F538342838FEF9FEF95838483B3
:1012F00091838083649FF001659FF00D1124E45673
:10130000FC4F938382833583248311821082C90129
:1013100008958FEF9FEF08958F929F92AF92BF92A3
:10132000EF92FF920F931F93CF93DF934B015C01DA
:101330008A0179016DDED82F83E088169104A1041B
:10134000B10420F08D2F67DECFEF13C029E2289D76
:10135000C001299D900D112480539F4FFC0174966C
:101360000590F491E02DA701B8010995C82F8D2FA4
:1013700052DE8C2FDF91CF911F910F91FF90EF9054
:10138000BF90AF909F908F900895F89449D848D817
:101390000E94C20198CACF939C0125503109233085
:1013A0003105F8F4C6E0C89FF001C99FF00D112483
:1013B000E456FC4F228133812530310594F46BDBF8
:1013C000C69FF001C79FF00D1124E456FC4F2FEF8C
:1013D0003FEF3583248333832283462F372F282FF3
:1013E00004C04FEF3FEF2FEF9FEF642F732F822F3B
:1013F000CF9108956530710581059105C8F42BE5FD
:10140000269FF001279FF00D1124E953FE4F208104
:101410003181232B69F022E030E031832083409139
:10142000D2035091D3032281DDDC04D081E0089502
:101430008FEF0895CF92DF92EF92FF928091D403C5
:101440009091D503A091D603B091D7031816190631
:101450001A061B0624F481E08093D8036BC0C09069
:10146000C301D090C401E090C501F090C6018BE5A6
:101470008C9DF0018D9DF00D1124E953FE4F80816C
:101480009181019729F5228133814091D2035091B6
:10149000D30386E0849FD001859FB00D1124A4560C
:1014A000BC4F12966D917C911397869FD001879FB8
:1014B000B00D1124A456BC4F8D919C9182179307B7
:1014C000C8F182E090E091838083C701B6018ADC95
:1014D0008091D2039091D3035EDF6093C301709338
:1014E000C4018093C5019093C6012BE5269FD001CE
:1014F000279FB00D1124FD01E953FE4F41E050E05C
:101500005183408341E050E060E070E04093B701D8
:101510005093B8016093B9017093BA01BD0165534E
:101520007E4F2C9DC0012D9D900D112485539E4F03
:101530000E946A01FF90EF90DF90CF900895613094
:1015400071058105910531F06230710581059105C4
:10155000F1F03FC08091D4039091D503A091D603C0
:10156000B091D703AC01BD014F5F5F4F6F4F7F4F0D
:101570004093D4035093D5036093D6037093D7035D
:10158000892B8A2B8B2B19F51092D80320C08091C0
:10159000D4039091D503A091D603B091D703181628
:1015A00019061A061B06ACF40197A109B10980932C
:1015B000D4039093D503A093D603B093D703892B7C
:1015C0008A2B8B2B21F48091D803811133DF81E0AA
:1015D00008958FEF0895CF92DF92EF92FF921F93BD
:1015E000CF93DF936B017C0113DD182F85E0C816C4
:1015F000D104E104F10470F48BE58C9DF0018D9D24
:10160000F00D1124E953FE4F80819181009711F074
:10161000059729F0812FFFDC8FEF9FEF09C0D28162
:10162000C381C701B601E6DE812FF5DC8D2F9C2F2B
:10163000DF91CF911F91FF90EF90DF90CF900895B1
:101640008F929F92AF92BF92CF92DF92EF92FF92D2
:10165000CF934B015C0169017A01DADCC82F85E088
:1016600088169104A104B10490F48BE5889DF001E3
:10167000899DF00D1124E953FE4F808191810097DF
:1016800031F0DF01A05BBF4F2C91222321F08C2F82
:10169000C2DC8FEF16C0E45BFF4FC082D182E282D2
:1016A000F38221E02C938330910529F0079731F4E0
:1016B000C501B40154D0C501B4019CDE8C2FABDC54
:1016C00081E0CF91FF90EF90DF90CF90BF90AF90EF
:1016D0009F908F900895CF92DF92EF92FF92CF93D9
:1016E000DF9397FD33C06B017C01672B682B692B5F
:1016F00011F4B5D029C08CDCD82F4091B5015091A0
:10170000B6016091C3017091C4018091C5019091AF
:10171000C6019601C8DBC82F8F3F19F48D2F7BDCE3
:1017200016C08091C3019091C4012BE5289FF00160
:10173000299FF00D1124E953FE4F84E090E091833E
:10174000808378DE8D2F67DCC1E001C0CFEF8C2F66
:10175000DF91CF91FF90EF90DF90CF900895CF92DF
:10176000DF92EF92FF92CF936B017C0151DCC82F87
:1017700085E0C816D104E104F10488F48BE58C9D62
:10178000F0018D9DF00D1124E953FE4F8081918170
:10179000009729F08430910531F0079721F08C2FC4
:1017A0003ADC8FEF24C026E02C9DD0012D9DB00D9A
:1017B0001124A456BC4F12968D919C91139785309D
:1017C00091057CF4289FF001299FF00D1124E45627
:1017D000FC4F208131818D919C91820F931F9183C9
:1017E0008083C701B6018DD98C2F15DC81E0CF91A4
:1017F000FF90EF90DF90CF900895A2D915CCCF93B2
:1018000061E070E080E090E09ADEC6E08091B50192
:101810009091B601C89FF001C99FF00D1124E456C4
:10182000FC4F228133812530310574F4C29FF001D1
:10183000C39FF00D1124E456FC4F20813181232BEE
:1018400019F4A9DDD7DDE2CF62E070E080E090E03E
:1018500076DECF91089583EB91E00AD0E0CBCF9371
:10186000D7DBC82FE7DD8C2FD6DB81E0CF91089541
:1018700008950F931F9300E010E0980104171507D7
:101880002607370764F4DC01ED91CD010F5F1F4F90
:101890002F4F3F4FE111F2CFB801C90104C06FEFE4
:1018A0007FEF8FEF9FEF1F910F910895A6E0B0E0BB
:1018B000ECE5FCE00C943B18182F9C831B0169019C
:1018C0007A01A6DB082F40E150E060E070E0812F54
:1018D0009C81CFDF4B015C0141E050E060E070E0B3
:1018E000C101C7DF2B013C012FEF82169206A20631
:1018F000B20649F16F3F7F4F8F4F9F4F21F153E069
:10190000C516D104E104F104F0F48091D90390915B
:10191000DA03A091DB03B091DC0384309105A105CB
:10192000B1058CF419831C811A8325E1289FA0013D
:10193000299F500D11245E834D8320E030E040E06C
:1019400050E0BA0104C0802F66DB8FEF42C048151B
:1019500059056A057B059CF4E981FA811191FA83A6
:10196000E983ED81FE81E20FF31FE352FC4F108308
:101970004F5F5F4F6F4F7F4F2F5F3F4FE8CF141484
:101980001504160417045CF4F101208135E1389F39
:10199000F001399FF00D1124E352FC4F208B25E11B
:1019A000289FF001299FF00D1124E352FC4FC18ABA
:1019B000D28AE38AF48A0196A11DB11D8093D903CE
:1019C0009093DA03A093DB03B093DC03802F23DB37
:1019D00081E02696E2E10C945718A0E2B0E0E3EF34
:1019E000FCE00C943F1886E0EFE3F1E0DE015B964B
:1019F00001900D928A95E1F71092D9031092DA03C3
:101A00001092DB031092DC038BE491E031DF80ED78
:101A1000A82E80E0B82E88E090E09C01205D304048
:101A20004901DE015B968E010F5F1F4FC12CD12C47
:101A3000760138018D91F8018193882339F03FEFC9
:101A4000C31AD30AE30AF30A8F01F4CFB4016A0D73
:101A50007B1D60537F4F4AE050E0CE0141960E94CB
:101A6000431BFE017196BFEFCB1ADB0AEB0AFB0AA0
:101A700020E1C216D104E104F10464F481919FEBEA
:101A8000980F9A3108F4805ED8018D938D018111F1
:101A9000EACF09C030E1C316D104E104F10419F022
:101AA00081E791E00DC0F501259135914591559162
:101AB00063E371E0C301FADE8F3F19F486E991E038
:101AC000D7DEF9E2AF0EB11C2BE4A21621E0B2067C
:101AD00009F0A7CF2FEF3FEFA90163E371E08FE398
:101AE00091E0E4DE81E0A096EEE00C945B184F926A
:101AF0005F926F927F928F929F92AF92BF92DF928E
:101B0000EF92FF920F931F93CF93DF9300D000D0FB
:101B10001F92CDB7DEB7E090D903F090DA030091C1
:101B2000DB031091DC03E982FA820B831C832DED29
:101B300033E0812C912C5401E980FA800B811C81C7
:101B40008E149F04A006B106ACF47C01F901412C6F
:101B5000512C3201D70141914423C1F00FEFE01A1B
:101B6000F00A5C9145130AC01FEF411A510A610A3D
:101B7000710AF0CF6FEF7FEFCB0165C00FEF801AD6
:101B8000900AA00AB00A2B5E3F4FD6CF7D83D62E97
:101B900040E150E060E070E06CDE698385E1889DA3
:101BA0008001899D100D112403511C4F40E150E02C
:101BB00060E070E0C8015DDEA9812A2FAA0F330B17
:101BC000440B550B24193509460957092B013C01D3
:101BD000B1E04B1A510861087108420E531E641E91
:101BE000751EE1E14E165104610471041CF62B01CF
:101BF0003C01D801ED2DFD8181E0481A51086108B2
:101C0000710814141504160417041CF48D918193A3
:101C1000F3CF12161306140615064CF4D7018D9156
:101C20007D0181932150310941095109F2CF85E1AC
:101C3000889DF001899DF00D1124E352FC4F6189CC
:101C40007289838994890F900F900F900F900F9055
:101C5000DF91CF911F910F91FF90EF90DF90BF9098
:101C6000AF909F908F907F906F905F904F9008956E
:101C7000CF92DF92EF92FF92FB01C12CD12C760123
:101C8000C216D306E406F50664F46191DC016D9397
:101C9000CD01662341F0BFEFCB1ADB0AEB0AFB0A4A
:101CA000EFCF8FEF01C081E0FF90EF90DF90CF90FA
:101CB0000895A0E1B0E0EFE5FEE00C9441188B013F
:101CC00049015A0120E130E040E050E0BC01CE0182
:101CD0000196CEDF8F3FF1F0C12CD12C76010DC0E3
:101CE00020E130E040E050E0B801CE010196C0DFD5
:101CF0008FEFC81AD80AE80AF80A8091D9039091A0
:101D0000DA03A091DB03B091DC03C816D906EA061A
:101D1000FB0614F08FEF0AC0B801CE010196E7DE92
:101D2000681579058A059B05D9F2862F6096ECE047
:101D30000C945D18A0E1B0E0E0EAFEE00C944918D4
:101D4000FC01CB018A012591359145915591BE0148
:101D50006F5F7F4FAEDF682F880F770B880B990B73
:101D60006F3F2FEF72078207920731F09801AE01A3
:101D70004F5F5F4FD1DA01C08FEF6096E4E00C94C3
:101D80006518FC01118210821382128208950F934C
:101D90001F93FC01828193818630910531F1DC0132
:101DA000AA0FBB1FAA0FBB1FAA0FBB1FAE0FBF1FDF
:101DB00014964D935D936D937C9317970196DC0178
:101DC00043E0AA0FBB1F4A95E1F7AE0FBF1F0D936B
:101DD0001D932D933C93139766E070E00E94AD171E
:101DE0009383828381E090E002C08FEF9FEF1F9189
:101DF0000F9108950F931F93FC018081918122819F
:101E000033818217930789F1DC0123E0AA0FBB1FFE
:101E10002A95E1F7AE0FBF1F14960D911D912D91DC
:101E20003C911797DB010D931D932D933C931397D2
:101E30000196DC0133E0AA0FBB1F3A95E1F7AE0F24
:101E4000BF1F0D911D912D913C91DB0114960D93B7
:101E50001D932D933C93179766E070E00E94AD1799
:101E60009183808381E090E002C08FEF9FEF1F910C
:101E70000F9108958DB383608DBBE9E6F0E080811A
:101E80008F608083789408951F920F920FB60F92FF
:101E900011248F939F9380914204823531F4809175
:101EA0003F0490914004019705C080913F049091B8
:101EB000400401969093400480933F049F918F913A
:101EC0000F900FBE0F901F9018951F920F920FB694
:101ED0000F9211248F939F9380914104823531F4A6
:101EE00080913D0490913E04019705C080913D048E
:101EF00090913E04019690933E0480933D049F91FF
:101F00008F910F900FBE0F901F901895A6E0B0E034
:101F1000ECE8FFE00C943D1800E010E01E821D820A
:101F200060913D0470913E048D819E81681B790B08
:101F3000E0903F04F0904004E01AF10AA0913D04C3
:101F4000B0913E04BE83AD8300913F0410914004E4
:101F5000072E000C880B990B0E94DE192AE336E449
:101F600041E75FE30E94E01A4B015C01B701FF0CFF
:101F7000880B990B0E94DE192AE336E441E75FE300
:101F80000E94E01A6B017C019B01AC01C501B40108
:101F90000E94A11820E030E040E05FE30E94E01AD8
:101FA0002B013C016091390470913A0480913B040B
:101FB00090913C0411D29B01AC018091310490912D
:101FC0003204A0913304B091340489839A83AB83A3
:101FD000BC83C301B2010E94E01A29813A814B817E
:101FE0005C810E94A1186093310470933204809345
:101FF0003304909334046091390470913A048091D1
:102000003B0490913C04C0D09B01AC01809135040D
:1020100090913604A0913704B091380489839A8353
:10202000AB83BC83C301B2010E94E01A29813A81CB
:102030004B815C810E94A118609335047093360433
:1020400080933704909338044090390450903A04B8
:1020500060903B0470903C04A5019401C701B60157
:102060000E94A0182FE135E84BE951E40E940919BC
:10207000A30192010E94A1186093390470933A045D
:1020800080933B0490933C0464E670E080E090E031
:1020900022DB46CF98D5CBD6EDDE83E494E071DE2B
:1020A00000E010E0980140E050E060E772E483E473
:1020B00094E06DDE00E010E020EF32E440E050E01C
:1020C00060E772E483E494E062DE1F921F9285E48D
:1020D00091E09F938F931F92C3E1CF931F92D0EC17
:1020E000DF9386E89FE09F938F930E941C0373DA2F
:1020F0001F921F9289E491E09F938F931F92CF9339
:102100001F92DF938CEB94E19F938F930E941C03AB
:1021100062DA1F921F928DE491E09F938F931F923A
:10212000CF931F9280E88F9385EE96E19F938F93D4
:102130000E941C0350DAE0910A01F0910B018081AA
:10214000806280838DB79EB74E960FB6F8949EBF7F
:102150000FBE8DBFC0E268EC70E080E090E0BBDABB
:10216000E0910801F091090180818062808368EC30
:1021700070E080E090E0AFDAE0910801F0910901B1
:1021800080818C278083E7CF8F929F92AF92BF92FE
:10219000CF92DF92EF92FF92CF93DF936B017C019E
:1021A00020E030E0A9010E940519C82FCC1FCC27E0
:1021B000CC1F87FF04C0F7FAF094F7F8F0942BEDEA
:1021C0003FE049EC50E4C701B6010E94DC1A181642
:1021D000CCF42BED3FE049EC50E4C701B6010E947E
:1021E00009190E94AB190E94DE192BED3FE049EC62
:1021F00050E40E94E01A9B01AC01C701B601A0D7D0
:102200006B017C012BED3FE049E450E4C701B601CE
:102210000E94DC1A18165CF42BED3FE049E450E410
:10222000C701B6018DD76B017C0181E0C827D0E0E2
:102230002BED3FE049EC5FE3C701B6010E94DC1AD9
:1022400018164CF4A70196016BED7FE089E490E449
:1022500077D76B017C012BED3FE049E45FE3C701D9
:10226000B601D3D787FF56C023E839EF42EA5FE3D0
:10227000C701B6010E94E01A4B015C019B01AC0151
:102280000E94E01A6B017C0125E63CE246EB58EA2D
:102290000E94E01A24E637E744EF5CE252D7A70138
:1022A00096010E94E01A26EA33E841EF50E348D74E
:1022B000A70196010E94E01A2AE13CE348EA54E3B0
:1022C00040D7A70196010E94E01A26E639E649E1C7
:1022D00058E336D7A70196010E94E01A23EE35E3B2
:1022E00043E25BE32ED7A70196010E94E01A27EE96
:1022F0003DE545EA5DE324D7A70196010E94E01A77
:102300002BED3FE049E45FE31CD7A50194010E9457
:10231000E01A54C0A70196016BED7FE089EC9FE3C2
:102320000FD723E839EF42EA5FE30E94E01A9B01EE
:10233000AC010E94E01A6B017C0126E33CE249ED0E
:102340005AEA0E94E01A2BE036EE4CEF5EE2F9D634
:10235000A70196010E94E01A26EF38E643ED52E30A
:10236000EFD6A70196010E94E01A23E83AEF40E772
:1023700056E3E7D6A70196010E94E01A24EE39EE53
:102380004AEA59E3DDD6A70196010E94E01A28EF38
:1023900030EE41E85CE3D5D6A70196010E94E01A31
:1023A00026EE39EE4DE95EE3CBD6A70196010E94F9
:1023B000E01A20E030E040E85FE3C3D6CD2B09F01F
:1023C0009058DF91CF91FF90EF90DF90CF90BF902A
:1023D000AF909F908F900895CF92DF92EF92FF92EF
:1023E0006B017C0120E030E0A9010FD787FF04C01A
:1023F000F7FAF094F7F8F0942BED3FE049EC50E455
:10240000C701B6010E94DC1A1816B4F42BED3FE0A8
:1024100049EC50E4C701B601FCD69DD7CFD72BEDD0
:102420003FE049EC50E40E94E01A9B01AC01C70177
:10243000B60186D66B017C012BED3FE049EC5FE3F2
:10244000C701B6017ED6A0DEFF90EF90DF90CF905F
:102450000895A6E0B0E0EEE2F2E10FC62B013C01E8
:1024600020E030E0A901D1D67301620187FF04C0EA
:10247000F7FAF094F7F8F09420E030E040E850E408
:10248000C701B6010E94DC1A87FD0EC0A7019601A4
:1024900060E070E080E89FE3BCD66B017C011E82A7
:1024A0001D820FEF1FEF42C020E030E040E85EE306
:1024B000C701B601AAD687FD35C0A7019601C7019D
:1024C000B6013FD648D77AD746D77E836D83072E8D
:1024D000000C880B990B72D720E030E040E05FE3FE
:1024E0000E94E01A4B015C019B01AC01C701B601DF
:1024F00027D669837A838B839C83A5019401C701C6
:10250000B6010E94E01A20E030E040E85FE319D60F
:102510009B01AC0169817A818B819C817AD66B01A8
:102520007C0102C01E821D8200E010E0A70196011E
:10253000C701B6010E94E01A4B015C012FE93FE59B
:1025400043E55BE40E94E01A2FE531E94EE45DE4E7
:10255000F8D5A50194010E94E01A28E333E744E589
:102560005EE4EFD5A50194010E94E01A22E936ED60
:102570004EE95EE4E6D5A50194010E94E01A2EE73B
:1025800039E14CE15EE4DDD569837A838B839C83FA
:1025900020E136E04AE559E4C501B4010E94E01AA1
:1025A00026E33DE54BE35CE4CCD5A50194010E9414
:1025B000E01A20E53AEF4AEC5DE4C3D5A5019401A9
:1025C000FFD72CEB3BE348E95EE4BBD5A5019401C2
:1025D000F7D722ED3AED48EB5EE4B3D5A5019401BF
:1025E000EFD72EE739E14CE15EE4ABD59B01AC01BE
:1025F00069817A818B819C810CD6A7019601E0D7F5
:102600002D813E81220F331F220F331F2F5A3E4F41
:10261000F901208131814281538193D56B017C0185
:102620000115110549F09B01AC016BED7FE089ECD0
:102630009FE386D56B017C0120E030E0A901C30156
:10264000B201E3D587FF04C0C701B601905802C0AC
:10265000C701B6012696E0E12CC5A0E0B0E0E2E3B8
:10266000F3E10FC56B017C0149015A0120E030E024
:10267000A901C501B401C9D5811115C020E030E020
:10268000A901C701B601C1D5882399F120E030E046
:10269000A901C701B60190D76BED7FE0181674F160
:1026A00089EC9FEB31C0A5019401C701B601B1D5FA
:1026B000D0DE8B01D82FC92F20E030E0A901C50161
:1026C000B401A3D587FF1DC020E030E0A901C701F8
:1026D000B60172D72BED3FE049E450E4B80187FD25
:1026E00004C08D2F9C2F2DD50FC08D2F9C2F28D54A
:1026F0000BC060E070E080E090E006C089EC9FE3F2
:1027000003C0B8018D2F9C2F6B017C01C701B6015E
:10271000CDB7DEB7ECE0D1C4863471F4E0910401AA
:10272000F091050190819F779083E0910401F091F1
:102730000501908190640FC0823581F4E09104011D
:10274000F091050190819F7B9083E0910401F091CD
:10275000050190819068908380934204CB01BA0177
:10276000C5C3982F862FBA01A9019C3429F5863458
:1027700071F4E0910401F091050190819F7D9083B7
:10278000E0910401F0910501908190610FC08235C4
:1027900081F4E0910401F091050190819F7E908386
:1027A000E0910401F0910501908190629083809303
:1027B0004104CB01BA0163C3923509F4ADCF08954A
:1027C00020E030E0A90166E48CE4CBDF40E050E09B
:1027D000BA0186E4A1CFCF92DF92EF92FF922FE170
:1027E00035E84BE951E4ECD620E030E040EC50E431
:1027F00010D523E333E343E35FE3A3D46B017C0110
:1028000023E333E343E35FE300D587FD10C020E01B
:1028100030E040E85FE3C701B601CED618166CF48D
:10282000C12CD12C90E8E92E9FE3F92E06C083E35A
:10283000C82EDC2CEC2C8FE3F82EC701B601FF90DC
:10284000EF90DF90CF900895CF92DF92EF92FF92BA
:1028500020918B0430918C0440918D0450918E0412
:1028600060918F04709190048091910490919204F2
:10287000F4DE6093830470938404809385049093C2
:1028800086042091390430913A0440913B045091E0
:102890003C0456D460938704709388048093890421
:1028A00090938A0499DD6B017C016091870470919B
:1028B00088048091890490918A0466DCA7019601BE
:1028C000CCDE60938704709388048093890490938E
:1028D0008A04FF90EF90DF90CF900895CF92DF921F
:1028E000EF92FF92B1DF20E030E0A9016091870410
:1028F000709188048091890490918A0486D423E39E
:1029000033E343E35FE387FF09C066E48CE429DF38
:1029100043E353E363E37FE382E508C062E58CE4CD
:1029200020DF43E353E363E37FE386E4F5DEC09017
:102930008704D0908804E0908904F0908A0420E015
:1029400030E0A901C701B60160D487FF04C0F7FADF
:10295000F094F7F8F0942DEC3CEC4CEC5DE3C701FF
:10296000B6012AD6181614F46FDFE1CF29DFFF90E5
:10297000EF90DF90CF900895A6E0B0E0E1ECF4E1B5
:102980007CC36BE774E083E494E034DAE091060101
:10299000F0910701808180638083E0910601F091CE
:1029A00007018081806C808300E010E01E821D8220
:1029B000412C512C3201209131043091320440914C
:1029C00033045091340460917B0470917C048091B5
:1029D0007D0490917E04B4D34B015C0160938B0421
:1029E00070938C0480938D0490938E042091350411
:1029F00030913604409137045091380460917F043F
:102A000070918004809181049091820499D36B012C
:102A10007C0160938F047093900480939104909351
:102A2000920420E030E0A901C501B401EED387FF94
:102A300004C0B7FAB094B7F8B09420E030E040E4B6
:102A400050E4C501B401E1D387FF58C020E030E075
:102A5000A901C701B601D9D387FF04C0F7FAF094E2
:102A6000F7F8F09420E030E040E450E4C701B6010C
:102A7000CCD387FF43C06BE774E083E494E0BAD91A
:102A8000019709F09AC020913104309132044091AD
:102A900033045091340460917B0470917C048091E4
:102AA0007D0490917E044CD360938B0470938C04CE
:102AB00080938D0490938E042091350430913604D8
:102AC000409137045091380460917F0470918004E4
:102AD000809181049091820433D360938F0470932A
:102AE000900480939104909392046ADE64E670E00F
:102AF00080E090E00E946B0BF1DE5DCFA5DEC09020
:102B00008704D0908804E0908904F0908A049601AC
:102B1000A701C301B20115D32B013C0120E030E035
:102B200040EC5FE3B601C7014BD569837A838B83A1
:102B30009C832AE037ED43E25CE3C301B20140D558
:102B40009B01AC0169817A818B819C81FAD2698376
:102B50007A838B839C8398014E815D81B601C70186
:102B6000EFD22DEC3CEC4CE45DE32AD59B01AC01AB
:102B700069817A818B819C81E4D24B015C012BDEDF
:102B800069837A838B839C83C501B401905823DECB
:102B90009B01AC0166E48CE4E4DD49815A816B81E0
:102BA0007C8186E4B9DD64E670E080E090E00E941C
:102BB0006B0B8601EE82FD82FECE02DE80E090E0AD
:102BC0002696E0E176C2E0910C01F0910D011582AC
:102BD00089E1848386E0828388E181830895E0919E
:102BE0000C01F0910D01908195FFFDCF8683089532
:102BF000CF93DF93EC018991882311F0F0DFFBCFB5
:102C0000DF91CF9108958AE0EADF8DE0E8CFAEE270
:102C1000B0E0ECE0F6E12FC22B013C015EA74DA72E
:102C200020E030E0A901F1D287FF0CC08DE289835A
:102C300077FA709477F870949E012E5F3F4F3E8F25
:102C40002D8F05C0AE014F5F5F4F5E8F4D8FC3016B
:102C5000B2014CD32BA33CA34DA35EA36FA378A7D3
:102C600089A79AA74901B42FF52FE62F798F1C0168
:102C700081E090E09C8F8B8F9AE0A92EB12CC12C23
:102C8000D12CE12CF12C00E010E094014B2F5F2FB0
:102C90006E2F798DC10193D14901B42FF52FE62F05
:102CA000798F1C01A0E01ED239F02B8D3C8D2F5F57
:102CB0003F4F3C8F2B8FE0CF4D8D5E8D8B8D9C8D4C
:102CC000480F591F5CA74BA75A8F498F8BA09CA018
:102CD0009DA19F8FEEA1E8A3FFA1F9A328A52AA398
:102CE00029A43AA48AE0A82EB12CC12CD12CE12C25
:102CF000F12C00E010E094014F8D58A169A17AA158
:102D0000C1015BD1205DE98DFA8D2293FA8FE98FA5
:102D100094014F8D58A169A17AA1C10150D14901F7
:102D20004F8F58A369A37AA31C01298D3A8D4D8D2D
:102D30005E8D24173507B1F68B8C9C8C5FEF851A5E
:102D4000950A820E931E8EE2EBA5FCA580832BA133
:102D50003CA14DA15EA16FA178A589A59AA569D3D3
:102D60009B01AC01C301B201EBD1340193012819DD
:102D700039094DA55EA524173507C4F420E030E0DD
:102D800040E251E41DD46B017C01E5D220E3260F23
:102D9000F30121933F01072E000C880B990B0ED3F2
:102DA0009B01AC01C701B601CBD1E0CFCA0157FFEF
:102DB00002C080E090E0F401E80FF91F1082CE011C
:102DC000019616DFAE96E2E172C185E791E010DF71
:102DD00060913104709132048091330490913404F5
:102DE00043E050E014DF87E791E002DF60913504B3
:102DF00070913604809137049091380443E050E09C
:102E000006DF8AE791E0F4DE6091390470913A04BC
:102E100080913B0490913C0443E050E0F8DEF3DE07
:102E200064EF71E080E090E00E946B0BCECFE09108
:102E30000A01F0910B01808182608083E0910A0198
:102E4000F0910B01808184608083E0910E01F0910C
:102E50000F018081806A808380818260808381818C
:102E6000886181838181826081838CEA96E2978385
:102E7000868364EF71E080E090E00C946B0BCF925E
:102E8000DF92EF92FF92CF93DF936B017C0120E002
:102E900030E0A901BAD187FD10C020E030E040E861
:102EA0005FE3C701B60188D3181654F4C12CD12CA6
:102EB00080E8E82E8FE3F82E03C0C12CD12C7601D8
:102EC000C0910E01D0910F016E817F8180E090E072
:102ED00073D2A701960174D33ED279876887DF91B8
:102EE000CF91FF90EF90DF90CF900895CF92DF9237
:102EF000EF92FF92CF93DF936B017C0120E030E0F3
:102F0000A90183D187FD10C020E030E040E85FE3F5
:102F1000C701B60151D3181654F4C12CD12C80E846
:102F2000E82E8FE3F82E03C0C12CD12C7601C0917E
:102F30000E01D0910F016E817F8180E090E03CD244
:102F4000A70196013DD307D27B876A87DF91CF9196
:102F5000FF90EF90DF90CF900895AA1BBB1B51E12B
:102F600007C0AA1FBB1FA617B70710F0A61BB70BF9
:102F7000881F991F5A95A9F780959095BC01CD019E
:102F80000895052E97FB16F400940FD057FD05D039
:102F9000B5D007FC02D046F408C050954095309556
:102FA00021953F4F4F4F5F4F0895909580957095B5
:102FB00061957F4F8F4F9F4F0895689401C0E894AB
:102FC0008F929F92CF93DF9305D0DF91CF919F9007
:102FD0008F90089588249924F401E401B0E49F932C
:102FE000AA279A158B049C04ED05FE05CF05D00792
:102FF000A10798F4AD2FDC2FCF2FFE2FE92D982CB1
:10300000892E982F872F762F652F542F432F322FFD
:103010002227B85031F7BF9127C01B2EBF91BB2785
:10302000220F331F441F551F661F771F881F991FCC
:10303000881C991CEE1FFF1FCC1FDD1FAA1FBB1F82
:103040008A149B04EC05FD05CE05DF05A007B1073A
:1030500048F08A189B08EC09FD09CE09DF09A00B8E
:10306000B10B21601A94E1F62EF49401AF01BE0178
:10307000CD01000C08952F923F924F925F926F9274
:103080007F928F929F92AF92BF92CF92DF92EF92F8
:10309000FF920F931F93CF93DF93CDB7DEB7CA1B79
:1030A000DB0B0FB6F894DEBF0FBECDBF09942A88A4
:1030B000398848885F846E847D848C849B84AA844C
:1030C000B984C884DF80EE80FD800C811B81AA81D9
:1030D000B981CE0FD11D0FB6F894DEBF0FBECDBFA4
:1030E000ED0108950024A7FD00942A17300540053E
:1030F000500560057005800590050895A1E21A2E1F
:10310000AA1BBB1BFD010DC0AA1FBB1FEE1FFF1F8B
:10311000A217B307E407F50720F0A21BB30BE40BDB
:10312000F50B661F771F881F991F1A9469F7609522
:103130007095809590959B01AC01BD01CF010895DC
:103140005058BB27AA270ED0FDC1EED130F0F3D1E5
:1031500020F031F49F3F11F41EF4D3C10EF4E0953A
:10316000E7FBC9C1E92FFFD180F3BA1762077307E4
:103170008407950718F071F49EF517C20EF4E095D8
:103180000B2EBA2FA02D0B01B90190010C01CA0121
:10319000A0011124FF27591B99F0593F50F4503ECC
:1031A00068F11A16F040A22F232F342F4427585FBE
:1031B000F3CF469537952795A795F0405395C9F7D6
:1031C0007EF41F16BA0B620B730B840BBAF091508E
:1031D000A1F0FF0FBB1F661F771F881FC2F70EC02D
:1031E000BA0F621F731F841F48F487957795679500
:1031F000B795F7959E3F08F0B3CF9395880F08F0E9
:103200009927EE0F97958795089551D108F481E09D
:1032100008950CD097C18FD140F086D130F021F4C1
:103220005F3F19F068C15111C1C16BC19CD198F3C6
:103230009923C9F35523B1F3951B550BBB27AA2737
:1032400062177307840738F09F5F5F4F220F331FA9
:10325000441FAA1FA9F333D00E2E3AF0E0E830D075
:1032600091505040E695001CCAF729D0FE2F27D078
:10327000660F771F881FBB1F261737074807AB0746
:10328000B0E809F0BB0B802DBF01FF2793585F4FBB
:103290002AF09E3F510568F02EC188C15F3FECF3D4
:1032A000983EDCF3869577956795B795F7959F5F80
:1032B000C9F7880F911D9695879597F90895E1E0D4
:1032C000660F771F881FBB1F621773078407BA0733
:1032D00020F0621B730B840BBA0BEE1F88F7E0958E
:1032E0000895BEE304D008F490E80895BFE32227D0
:1032F0003327A90140D158F19F5740F1B91738F150
:10330000BFE3B91B9927B8503AF4660F771F881F9F
:10331000991FB395D2F316C0B8504AF0232F342F1B
:10332000452F562F672F782F8827B850BAF7B85FE8
:1033300049F08695779567955795479537952795E1
:10334000BA95B9F70EF4E0D088940895889460E0B7
:1033500070E0CB01089504D06894B11127C108959D
:103360000AD188F09F5790F0B92F9927B751A0F054
:10337000D1F0660F771F881F991F1AF0BA95C9F709
:1033800012C0B13081F011D1B1E008950EC1672FA4
:10339000782F8827B85F39F0B93FCCF386957795B9
:1033A0006795B395D9F73EF49095809570956195A2
:1033B0007F4F8F4F9F4F0895E89409C097FB3EF4CD
:1033C00090958095709561957F4F8F4F9F4F992372
:1033D000A9F0F92F96E9BB279395F69587957795F0
:1033E0006795B795F111F8CFFAF4BB0F11F460FFB0
:1033F0001BC06F5F7F4F8F4F9F4F16C0882311F008
:1034000096E911C0772321F09EE8872F762F05C01B
:10341000662371F096E8862F70E060E02AF09A95B6
:10342000660F771F881FDAF7880F9695879597F9AB
:103430000895E894F92F96EBFF2381F012161306F6
:103440001406440B9395F695879577956795579550
:103450004040FF23B9F71BC099270895882351F4F2
:103460009850D2F7872B762F652F542F432F322F6A
:1034700020E0B1F3121613061406440B88233AF029
:103480009A95440F551F661F771F881FCAF755234B
:103490004AF4440F551F11F460FF04C06F5F7F4F63
:1034A0008F4F9F4F880F9695879597F90895990F9D
:1034B0000008550FAA0BE0E8FEEF16161706E807FE
:1034C000F907C0F012161306E407F50798F0621B1F
:1034D000730B840B950B39F40A2661F0232B242BF4
:1034E000252B21F408950A2609F4A140A6958FEF13
:1034F000811D811D089597F99F6780E870E060E065
:1035000008959FEF80EC0895909580957095609553
:1035100050954095309521953F4F4F4F5F4F6F4FDE
:103520007F4F8F4F9F4F089500240A941616170659
:1035300018060906089500240A94121613061406A4
:1035400005060895092E0394000C11F4882352F007
:10355000BB0F40F4BF2B11F460FF04C06F5F7F4FBF
:103560008F4F9F4F089557FD9058440F551F59F0A6
:103570005F3F71F04795880F97FB991F61F09F3F60
:1035800079F087950895121613061406551FF2CF89
:103590004695F1DF08C0161617061806991FF1CFD9
:1035A00086957105610508940895E894BB27662700
:1035B0007727CB0197F908957ADF08F48FEF089504
:1035C0000BD0C0CFB1DF28F0B6DF18F0952309F09B
:1035D00092CF97CF1124EACFC6DFA0F3959FD1F306
:1035E000950F50E0551F629FF001729FBB27F00DB1
:1035F000B11D639FAA27F00DB11DAA1F649F662706
:10360000B00DA11D661F829F2227B00DA11D621F54
:10361000739FB00DA11D621F839FA00D611D221F0E
:10362000749F3327A00D611D231F849F600D211DF2
:10363000822F762F6A2F11249F5750408AF0E1F095
:1036400088234AF0EE0FFF1FBB1F661F771F881FDE
:1036500091505040A9F79E3F510570F04CCFA6CF36
:103660005F3FECF3983EDCF3869577956795B795C9
:10367000F795E7959F5FC1F7FE2B880F911D9695F3
:10368000879597F90895FB01DC014150504048F0BF
:1036900005900D920020C9F701C01D924150504085
:1036A000E0F70895DC0101C06D9341505040E0F710
:1036B0000895AEE0B0E0EEE5FBE1EBCC8C01FA0161
:1036C00086E08C831A83098377FF02C060E070E88C
:1036D000CB0101979E838D83A901BF01CE01019685
:1036E00011D04D815E8157FD0AC02F813885421768
:1036F00053070CF49A01F801E20FF31F10822E9683
:10370000E4E0E3CCABE0B0E0E7E8FBE1B4CC6C0193
:103710007B018A01FC0117821682838181FFBFC170
:10372000CE0101963C01F6019381F70193FD85914D
:1037300093FF81917F01882309F4ADC1853239F46B
:1037400093FD859193FF81917F01853221F4B6012C
:1037500090E0C0D1E8CF912C212C312CFFE1F31562
:10376000D8F08B3279F038F4803279F08332A1F4DA
:10377000232D20611DC08D3261F0803369F4232D2B
:10378000216016C0832D8260382EE32DE4603E2E2A
:103790002AC0F32DF8601DC037FC2DC020ED280F86
:1037A0002A3040F08E32B9F436FC75C1232D2064E6
:1037B000322E19C036FE06C08AE0989E200D1124D4
:1037C000922E11C0EAE02E9E200D1124222EF32D00
:1037D000F0623F2E08C08C3621F4832D8068382E8D
:1037E00002C0883641F4F70193FD859193FF8191E2
:1037F0007F018111B3CF982F9F7D9554933028F48A
:103800000C5F1F4F9FE399830DC0833631F08337E0
:1038100071F0833509F055C020C0F801808189839B
:103820000E5F1F4F88248394912C530112C02801EE
:10383000F2E04F0E511CF801A080B18036FE03C0AB
:10384000692D70E002C06FEF7FEFC50138D14C01E8
:103850008201F32DFF773F2E15C0280122E0420E92
:10386000511CF801A080B18036FE03C0692D70E0C4
:1038700002C06FEF7FEFC50117D14C01F32DF06847
:103880003F2E820133FC19C0822D90E088169906E4
:10389000A0F4B60180E290E01DD12A94F5CFF501A5
:1038A00037FC859137FE81915F01B60190E012D11E
:1038B00021102A9421E0821A91088114910479F749
:1038C000E1C0843611F0893639F5F80137FE07C0BA
:1038D00060817181828193810C5F1F4F08C060817C
:1038E0007181072E000C880B990B0E5F1F4FF32D73
:1038F000FF763F2E97FF09C0909580957095619552
:103900007F4F8F4F9F4FF0683F2E2AE030E0A3019A
:103910001DD1882E861844C0853731F4232D2F7E83
:10392000B22E2AE030E025C0932D997FB92E8F3634
:10393000C1F018F4883579F0AEC0803719F08837B7
:1039400021F0A9C0E92FE061BE2EB4FE0DC0FB2D11
:10395000F460BF2E09C034FE0AC0292F2660B22EA3
:1039600006C028E030E005C020E130E002C020E1E0
:1039700032E0F801B7FE07C06081718182819381D6
:103980000C5F1F4F06C06081718180E090E00E5F88
:103990001F4FA301DBD0882E8618FB2DFF773F2E0B
:1039A00036FE0DC0232D2E7FA22E891458F434FE2E
:1039B0000BC032FC09C0832D8E7EA82E05C0B82C0A
:1039C000A32C03C0B82C01C0B92CA4FE0FC0FE016B
:1039D000E80DF11D8081803321F49A2D997EA92E66
:1039E00009C0A2FE06C0B394B39404C08A2D8678A1
:1039F00009F0B394A3FC10C0A0FE06C0B21480F47A
:103A0000280C922C9B180DC0B21458F4B60180E219
:103A100090E060D0B394F8CFB21418F42B1802C021
:103A2000982C212CA4FE0FC0B60180E390E052D068
:103A3000A2FE16C0A1FC03C088E790E002C088E5A2
:103A400090E0B6010CC08A2D867851F0A1FE02C02C
:103A50008BE201C080E2A7FC8DE2B60190E03AD093
:103A6000891430F4B60180E390E034D09A94F8CF12
:103A70008A94F301E80DF11D8081B60190E02AD00F
:103A80008110F6CF222009F44ECEB60180E290E0FC
:103A900021D02A94F7CFF6018681978102C08FEF5B
:103AA0009FEF2B96E2E103CBFC0105906150704043
:103AB0000110D8F7809590958E0F9F1F0895FC01F7
:103AC0006150704001900110D8F7809590958E0F4D
:103AD0009F1F08950F931F93CF93DF93FB012381C3
:103AE00021FD03C08FEF9FEF2CC022FF16C046813F
:103AF0005781248135814217530744F4A081B18155
:103B00009D012F5F3F4F318320838C932681378126
:103B10002F5F3F4F3783268314C08B01EC01FB01DD
:103B20000084F185E02D0995892BE1F6D8011696E0
:103B30008D919C911797019617969C938E9316974B
:103B4000CE01DF91CF911F910F910895FA01AA271D
:103B5000283051F1203181F1E8946F936E7F6E5FD0
:103B60007F4F8F4F9F4FAF4FB1E03ED0B4E03CD07E
:103B7000670F781F891F9A1FA11D680F791F8A1F61
:103B8000911DA11D6A0F711D811D911DA11D20D0C8
:103B900009F468943F912AE0269F11243019305D82
:103BA0003193DEF6CF010895462F4770405D419373
:103BB000B3E00FD0C9F7F6CF462F4F70405D4A33C0
:103BC00018F0495D31FD4052419302D0A9F7EACF88
:103BD000B4E0A6959795879577956795BA95C9F7B7
:103BE00000976105710508959B01AC010A2E0694AA
:103BF0005795479537952795BA95C9F7620F731F63
:083C0000841F951FA01D08950B
:103C0800C00005002B002A0025002400C000800009
:103C1800201B5B306D1B5B324A1B5B3B48000A462E
:103C28007265654D454D3A2564202862797465733F
:103C3800290A0A006E756C6C70006D61696E002F40
:103C48006465762F006C6F6300706C6100735F6F42
:103C580000000000003863ED3EDB0F493F5F987BB2
:103C68003F0DB78D3F6C5B983FBBE09F3F8870A5C9
:103C78003F65B4A93F28002C20002920416E676CBD
:043C8800653A200079
:00000001FF
