:100000004AC1000066C1000064C1000062C1000076
:1000100060C100005EC100005CC100005AC1000068
:1000200058C1000056C1000054C1000052C1000078
:1000300050C100004EC100000BC200004AC10000C8
:1000400048C1000046C10000B2C1000042C100002A
:1000500040C100003EC100003CC100003AC10000A8
:1000600038C1000036C100000C944B010C946901AA
:100070000C9469010C9469010C9469010C94690158
:100080000C9469010C9469010C9469010C94690148
:100090000C9469010C9469010C9469010C94690138
:1000A0000C9428020C9469010C9469010C94690168
:1000B0000C94D7010C9469010C9469010C946901AA
:1000C0000C9469010C9469010C9469010C94690108
:1000D0000000000000000000434F4E534F4C45000D
:1000E000000012081208120812081208100812085C
:1000F00012081008000010080001000000010000B4
:10010000004E554C4C44455600000012081208128F
:10011000081208120810081208120810080000102F
:10012000080002000000000000004E414D45535001
:1001300041434500EB0C940E1008100810081008FD
:1001400010081008100800001008006E616D696E3C
:100150006974202864657669636573293A0D0A001D
:100160004552524F522047455453544B2025730A51
:10017000006E616D6573706163653A2064657669D0
:100180006365206E616D6520257320746F6F206C30
:100190006F6E670D0A006E616D6573706163653A1D
:1001A0002063616E6E6F74206D6F756E74202564B0
:1001B0000D0A000A0A416C6C20757365722070721A
:1001C0006F636573736573206861766520636F6D17
:1001D000706C657465642E0A0A000A57656C636F5B
:1001E0006D6520746F2058696E75210A0A0D0958D3
:1001F000696E75204F5320436F7079726967687418
:100200002028632920323031322C20323031350A17
:100210000D09446F75676C617320452E20436F6D27
:10022000657220616E64204352432050726573737F
:100230002C20496E632E0A0A0D0958696E75204FED
:100240005320666F72204156522061746D6567615C
:10025000333238702076302E312028632920323016
:1002600032300A0D0952616661656C2049676E6122
:1002700063696F205A7572697461203C72616661AE
:100280004066692E756E636F6D612E6564752E61B3
:10029000723E0A0A0D0011241FBECFEFD8E0DEBF68
:1002A000CDBF11E0A0E0B1E0E4E1F1E302C00590D0
:1002B0000D92A835B107D9F724E0A8E5B1E001C057
:1002C0001D92AA37B207E1F70C9457060E944D0F12
:1002D000FFC296CEFF93EF93FC0100820FB6F89415
:1002E00004A21182228233824482558266827782FE
:1002F00080869186A286B386C486D586E686F786F2
:10030000008B118B228B338B448B558B668B778BB9
:10031000808F918FA28FB38FC48FD58F0F90068E51
:100320000F90078E0DB600A20EB601A2FB0100A031
:100330000DBE01A00EBE078C0F92068C0F92D58DBC
:10034000C48DB38DA28D918D808D778966895589F5
:1003500044893389228911890089F784E684D58408
:10036000C484B384A284918480847780668055801D
:10037000448033802280118004A00FBE0080EF9162
:10038000FF910895E0910001F0910101158289E14A
:10039000848386E0828388E181830895E09100016F
:1003A000F0910101908195FFFDCF868308951F9202
:1003B0000F920FB60F9211248F938091C6008093F5
:1003C00068018F910F900FBE0F901F901895A4E0B9
:1003D000B0E0EDEEF1E00C94CF1219821A821B828C
:1003E0001C8219821A821B821C8209811A812B812C
:1003F0003C81061717072807390770F400000981A8
:100400001A812B813C810F5F1F4F2F4F3F4F098374
:100410001A832B833C83E9CF2496E4E00C94EB12FF
:1004200080E284B92D9A60E47DE083E090E0CFDF44
:100430002D9860E47DE083E090E0C9CF10929101B7
:1004400010929201109293011092940181E008950C
:100450001F920F920FB60F9211242F933F934F9339
:100460005F936F937F938F939F93AF93BF93EF931C
:10047000FF9380919B0190919C01A0919D01B0916F
:100480009E010196A11DB11D80939B0190939C013B
:10049000A0939D01B0939E01883E9340A105B105B4
:1004A000D8F080919F019091A001A091A101B091FD
:1004B000A2010196A11DB11D80939F019093A001FF
:1004C000A093A101B093A20110929B0110929C01F4
:1004D00010929D0110929E0180919501909196013C
:1004E00026E0289FF001299FF00D1124E952FC4FCE
:1004F000828193818630910584F4289FF001299FA1
:10050000F00D1124E952FC4F808191810197918374
:100510008083892B11F40E94FF0B809197019091A9
:100520009801A0919901B0919A010197A109B1098F
:1005300049F08093970190939801A0939901B0930B
:100540009A010DC081E090E0A0E0B0E080939701B7
:1005500090939801A0939901B0939A016BD7FF9162
:10056000EF91BF91AF919F918F917F916F915F912B
:100570004F913F912F910F900FBE0F901F901895A4
:1005800099D6909396018093950181E090E0A0E048
:10059000B0E08093970190939801A0939901B09354
:1005A0009A0110929F011092A0011092A101109245
:1005B000A20110929B0110929C0110929D01109239
:1005C0009E0185B5836085BD84B5826084BD8FE35F
:1005D00087BDEEE6F0E08081826080830895CF924F
:1005E000DF92EF92FF92CF93DF936B017C0110D5E6
:1005F000D82F83E0C816D104E104F10420F08D2F38
:100600000AD5CFEF11C029E22C9DC0012D9D900D80
:10061000112480539F4FFC0176960590F491E02DB4
:100620000995C82F8D2FF7D48C2FDF91CF91FF9094
:10063000EF90DF90CF900895A6E0B0E0E2E2F3E023
:100640000C94C1122B8D29838C8CED8CFE8C09A10E
:100650003AA13E83DDD4982E40E4E416F1041CF464
:1006600070E4E72EF12C83E0E80EF11C9CEFE92208
:1006700027010F2C000C66087708C301B20169D26C
:100680001C01019679F480E691E00E94380C892DD6
:10069000C2D4FFEFFA832FEF2B833FEF3C834FEF62
:1006A0004D8309C1309158012091590180915A011F
:1006B00090915B01A12CB12C1BE5632F722F26E0DA
:1006C00030E040E050E00E9447126B017C016A83F9
:1006D000DB82EC82FD82169FF001179FF00D112442
:1006E000E955FE4F80819181B701A6014F5F5F4FB1
:1006F0006F4F7F4F892B79F44093580150935901E4
:1007000060935A0170935B018FEFC816D806E80614
:10071000F806A1F4B8CF342F252FCB01EFEFAE1A96
:10072000BE0AF6E0AF16B10441F64093580150936B
:10073000590160935A0190935B01A5CF2F8D38A189
:10074000121613060CF09FCF8091C9039091CA0333
:10075000A091CB03B091CC030196A11DB11D809354
:10076000C9039093CA03A093CB03B093CC0385E055
:1007700090E0918380833383228331AE20AE42AEFA
:1007800053AE64AE75AEDF01AB5BBF4F1C92A02FC2
:10079000BE818F0180E090E02D91F801E80FF91FF4
:1007A00026AF222321F0019687309105A9F72BE58A
:1007B0002C9DC0012D9D900D1124FC01E955FE4F8B
:1007C0005F01EA5BFF4F8FEF9FEF91838083B8D18A
:1007D000F501E85BFF4F60837183828393833896D2
:1007E00010823196118210823296118210823296D6
:1007F000118210828AEAF10180838BA19CA1F5010C
:1008000093A782A720E030E0F801E20FF31F1482E3
:100810002F5F3F4F26323105B9F72BE52C9DF001B4
:100820002D9DF00D1124E955FE4F298124AB85AA99
:1008300026A387A220E820A7DE01959620E030E0DD
:100840002817390764F44D915D91F901EE0FFF1FF0
:10085000E00FF11F55A744A72F5F3F4FF1CFFC01D9
:100860007696EE0FFF1F4BE54C9D90014D9D300D90
:100870001124E20FF31FE955FE4F11821082F90196
:10088000E955FE4F848F958F2D523E4F228F338F27
:100890008DEF9BE0D10111978C9311979C93119749
:1008A00039813C9311978C9245E0241A310824A297
:1008B00035A2892DB0D36A817B818C819D8126965A
:1008C000E2E10C94DD1261E070E080E090E00895D8
:1008D00037D1AAC3A0E0B0E0E0E7F4E00C94C7127F
:1008E000EC016A017B0194D3C114D104E104F10449
:1008F00009F447C02091D3033091D403C217D30722
:1009000008F43FC02091D5033091D6032C173D0742
:10091000C0F197E0C90ED11CE11CF11C98EFC9226F
:10092000A601DD0C660B770BE091CD03F091CE03B1
:10093000ADECB3E0309741F0EC17FD0740F5DF0177
:100940000190F081E02DF6CF93E0AD3CB907D1F1F5
:100950001296CD90DD90ED90FC9015978D010B2EA9
:10096000000C220B330B0C0D1D1D2E1D3F1D6E01A7
:100970000D2E000CEE08FF08C016D106E206F306A5
:1009800018F449D38FEF82C0309741F41EC093E032
:10099000AD3CB907E9F600E010E098016E010D2EBC
:1009A000000CEE08FF08C40ED51EE61EF71E4F0110
:1009B0000F2E000CAA08BB088C149D04AE04BF04C3
:1009C00020F4DFCF00E010E09801C090CF03D0907A
:1009D000D003E090D103F090D203C40ED51EE61EE2
:1009E000F71EC092CF03D092D003E092D103F092D1
:1009F000D2036E010D2E000CEE08FF08C016D106C2
:100A0000E206F30691F412960D911D912D913C9101
:100A10001597400F511F621F731F12964D935D93E0
:100A20006D937C931597ED0108C0F983E8834A83A1
:100A30005B836C837D83CD93DC934A815B816C8186
:100A40007D818E010D2E000C220B330B040F151F20
:100A5000261F371F6F010F2E000CEE08FF080C1524
:100A60001D052E053F0581F4028113812481358106
:100A7000400F511F621F731F4A835B836C837D830A
:100A80002081318139832883C6D281E0CDB7DEB79A
:100A9000ECE00C94E31226E0AC01249FC001259FFA
:100AA000900D1124FC01E952FC4F428153814630E4
:100AB00051051CF5BA01052E000C880B990B249FDB
:100AC000F001259FF00D1124E952FC4FA281B38162
:100AD00044815581249FF001259FF00D1124E95296
:100AE000FC4FB383A2832A9FF0012B9FF00D1124AA
:100AF000E952FC4F5583448308956FEF7FEFCB019C
:100B0000089546E0469FF001479FF00D1124E952F9
:100B1000FC4FA281B38124813581429FF001439F24
:100B2000F00D1124E952FC4FB383A2834A9FF001D8
:100B30004B9FF00D1124E952FC4F35832483089517
:100B40006091A3017091A4018091A5019091A601EB
:100B50000895A0E0B0E0EFEAF5E00C94CB126B0151
:100B60007C0156D2C114D104E104F10449F197E0AB
:100B7000C90ED11CE11CF11C98EFC9220D2C000CF0
:100B8000EE08FF08E091CD03F091CE03A0E0B0E0C5
:100B9000C0E0D0E02DEC33E0309781F0428153810A
:100BA000648175814C155D056E057F0510F0D901D6
:100BB000EF019F010190F081E02DEECF209721F40D
:100BC0002AD28FEF9FEF41C00A811B812C813D818A
:100BD000C016D106E206F30629F4288139812D9347
:100BE0003C9311C00C191D092E093F090A831B8370
:100BF0002C833D83AE01DD0F660B770B040F151FB1
:100C0000261F371FE8014091CF035091D003609118
:100C1000D1037091D2034C195D096E097F0940938D
:100C2000CF035093D0036093D1037093D203F3D1D9
:100C3000D701C6010497A109B109AE01DD0F660B0A
:100C4000770B840F951FA61FB71FCDB7DEB7E8E05F
:100C50000C94E712CF92DF92EF92FF92CF93DF9343
:100C60006B017C01D5D1D82F83E0C816D104E104F3
:100C7000F10420F08D2FCFD1CFEF11C029E22C9DB0
:100C8000C0012D9D900D112480539F4FFC01729641
:100C90000590F491E02D0995C82F8D2FBCD18C2F94
:100CA000DF91CF91FF90EF90DF90CF9008956DD3BB
:100CB00088E091E09F938F9397D28AED91E0D8D509
:100CC000C2D21092C9031092CA031092CB031092A1
:100CD000CC0310921504109216041092170410926F
:100CE0001804E7EAF1E089EC93E00F900F9011828D
:100CF000108216AE11AE10AE13821282E55AFF4F6B
:100D00008E179F07A1F79ADBD5D290931404809396
:100D1000130460E070E0CB019DDF61E070E080E0F3
:100D200090E098DF62E070E080E090E093DF28DC04
:100D3000E091CD03F091CE0380E090E0DC013097AC
:100D400061F04281538164817581840F951FA61FD4
:100D5000B71F0190F081E02DF2CFBF93AF939F9327
:100D60008F9386E191E09F938F933ED21F921F92C3
:100D70001F921F928CE291E09F938F931F928AE0C3
:100D80008F931F9280E48F931F921F9255DC2BE567
:100D9000269FF001279FF00D1124E955FE4F81E0B9
:100DA00090E09183808339D11F921F921F921F92EE
:100DB00082E391E09F938F931F9284E18F9381E070
:100DC0008F9388EB8F938DE49FE09F938F9334DC18
:100DD00002D48DB79EB74E960FB6F8949EBF0FBE45
:100DE0008DBFFFCF1F93CF93DF93FA0136973397D1
:100DF00008F054C0663071058105910508F04EC0B9
:100E00003BE5369FF001379FF00D1124E955FE4F69
:100E10000190F081E02DEF2B09F440C036E0349FC3
:100E2000F001359FF00D1124E952FC4F42815381AE
:100E3000022E000C330BC6E016E0C49FF001C59FE4
:100E4000F00D1124E952FC4FA081B181A217B30724
:100E500018F042815381F0CFC481D581169FD00113
:100E6000179FB00D1124A952BC4F13965C934E935B
:100E700012971596DC93CE9314972D933C931C9F59
:100E8000D0011D9FB00D1124A952BC4F13967C9325
:100E90006E9312977583648381E001C08FEFDF91B9
:100EA000CF911F9108954F925F926F927F928F9290
:100EB0009F92AF92BF92CF92DF92EF92FF92CF9329
:100EC000DF9300D000D0CDB7DEB76B017C01CA0143
:100ED0000697039708F088C086E0C816D104E1049D
:100EE000F10408F081C08BE58C9DF0018D9DF00D23
:100EF0001124E955FE4F80819181892B09F474C03A
:100F00004A01052E000CAA08BB0886E0849FF00168
:100F1000859FF00D1124E952FC4F82819381092EA7
:100F2000000CAA0BBB0B4F5F5F4F2A01550F6608E1
:100F3000770849825A826B827C8266E049805A80B7
:100F40006B807C8084159505A605B70569F566E07C
:100F50006C9DF0016D9DF00D1124E952FC4F538200
:100F600042829582848231832083689DA001699D9D
:100F7000500D1124FA01E952FC4FD382C282649DC4
:100F8000F001659DF00D1124E952FC4FD582C48219
:100F900084159505A605B70529F180819181821BED
:100FA000930B918380831EC0689FF001699FF00DB1
:100FB0001124E952FC4F408151812417350758F024
:100FC000241B350B428153814C015D01CA01550F31
:100FD000AA0BBB0BB3CF2C013D0189819A81AB8158
:100FE000BC81B5CF81E001C08FEF0F900F900F90C3
:100FF0000F90DF91CF91FF90EF90DF90CF90BF9057
:10100000AF909F908F907F906F905F904F900895DA
:101010008FB7F89408958FBF089578940895FFCFFF
:101020008FEF089581E00895AF92BF92CF92DF9243
:10103000EF92FF921F93CF93DF936B017C01E8DF68
:10104000182F86E0C816D104E104F10488F48BE57A
:101050008C9DF0018D9DF00D1124E955FE4F80818E
:101060009181892B29F0C114D104E104F10421F408
:10107000812FD1DF8FEF9DC08091C9039091CA036A
:10108000A091CB03B091CC030197A109B109809342
:10109000C9039093CA03A093CB03B093CC030297E8
:1010A000A105B1050CF4D7D38BE58C9D50018D9D26
:1010B000B00C1124F501E151FE4F608171818281F4
:1010C0009381A7019601BCD2C0E0D0E0FE01EA0DF9
:1010D000FB1DE850FE4F60817181072E000C880BCC
:1010E000990B7DDA2296C630D10581F78BE58C9D70
:1010F000E0018D9DD00D1124C955DE4F4AAD5BAD89
:101100006CAD7DAD495F5F4F6F4F7F4F487F052EC0
:10111000000C660B770B88AD99AD092E000CAA0B5D
:10112000BB0B0496A11DB11D841B950BA60BB70B21
:10113000D1DB888199818430910581F030F4813050
:10114000910549F0029729F127C08630910551F0A9
:10115000079721F021C0198218826CD1C701B6010E
:10116000FED21AC0CA5BDF4F8881998127E0289F91
:10117000F001299FF00D1124E353FC4F81819281EE
:10118000A381B4810196A11DB11D81839283A383A4
:10119000B483C701B601B5DC8BE58C9DF0018D9D54
:1011A000F00D1124E955FE4F11821082812F33DF9B
:1011B00081E0DF91CF911F91FF90EF90DF90CF9072
:1011C000BF90AF900895CF93DF93C82F21DFD82F22
:1011D000CA3011F48DE0E2D88C2FE0D88D2F1BDFC0
:1011E00081E0DF91CF910895A1E5B0E0EAEFF8E06A
:1011F0000C94CD128E01065A1F4FF801E190F19028
:101200008F0121E530E040E050E060E070E0CE0189
:1012100001960E94D8159801A70160E570E0CE0103
:1012200001960E94DF158E010F5F1F4FF80181911B
:101230008F01882311F0C7DFF9CF81E0CF5ADF4F4C
:10124000E6E00C94E9120F931F93CF93DF938AE7A4
:1012500094E0A0E8BB270196A11DB11DEC0190937D
:10126000D4038093D3032FEE38E03093D60320933A
:10127000D503EDECF3E09183808319821882092E67
:10128000000CAA0BBB0B4FEE58E060E070E08A0147
:101290009B01081B190B2A0B3B0B0A831B832C8316
:1012A0003D830283138324833583DF91CF911F9184
:1012B0000F91089520910201309103012A303105E8
:1012C00044F5C90102969093030180930201A9019C
:1012D0004F5F5F4F66E0629FF001639FF00D112446
:1012E000E952FC4F538342838FEF9FEF95838483B2
:1012F00091838083649FF001659FF00D1124E95272
:10130000FC4F938382833583248311821082C90129
:1013100008958FEF9FEF08958F929F92AF92BF92A3
:10132000EF92FF920F931F93CF93DF934B015C01DA
:101330008A0179016DDED82F83E088169104A1041B
:10134000B10420F08D2F67DECFEF13C029E2289D76
:10135000C001299D900D112480539F4FFC0174966C
:101360000590F491E02DA701B8010995C82F8D2FA4
:1013700052DE8C2FDF91CF911F910F91FF90EF9054
:10138000BF90AF909F908F900895F89449D848D817
:101390000E94C20198CACF939C0126503109233084
:1013A0003105F8F4C6E0C89FF001C99FF00D112483
:1013B000E952FC4F228133812630310594F46BDBF6
:1013C000C69FF001C79FF00D1124E952FC4F2FEF8B
:1013D0003FEF3583248333832283462F372F282FF3
:1013E00004C04FEF3FEF2FEF9FEF642F732F822F3B
:1013F000CF9108956630710581059105C8F42BE5FC
:10140000269FF001279FF00D1124E955FE4F208102
:101410003181232B69F022E030E031832083409139
:101420001304509114042281DDDC04D081E008957E
:101430008FEF0895CF92DF92EF92FF928091150483
:1014400090911604A0911704B0911804181619066B
:101450001A061B0624F481E0809319046BC0C09027
:10146000A301D090A401E090A501F090A6018BE526
:101470008C9DF0018D9DF00D1124E955FE4F80816A
:101480009181019729F52281338140911304509174
:10149000140486E0849FD001859FB00D1124A952C9
:1014A000BC4F12966D917C911397869FD001879FB8
:1014B000B00D1124A952BC4F8D919C9182179307B6
:1014C000C8F182E090E091838083C701B6018ADC95
:1014D00080911304909114045EDF6093A3017093D4
:1014E000A4018093A5019093A6012BE5269FD0012E
:1014F000279FB00D1124FD01E955FE4F41E050E05A
:101500005183408341E050E060E070E040939701F8
:10151000509398016093990170939A01BD016555AC
:101520007E4F2C9DC0012D9D900D112485559E4F01
:101530000E946A01FF90EF90DF90CF900895613094
:1015400071058105910531F06230710581059105C4
:10155000F1F03FC08091150490911604A0911704FA
:10156000B0911804AC01BD014F5F5F4F6F4F7F4FCB
:101570004093150450931604609317047093180455
:10158000892B8A2B8B2B19F51092190420C080917E
:10159000150490911604A0911704B0911804181620
:1015A00019061A061B06ACF40197A109B10980932C
:1015B000150490931604A0931704B0931804892B74
:1015C0008A2B8B2B21F480911904811133DF81E068
:1015D00008958FEF0895CF92DF92EF92FF921F93BD
:1015E000CF93DF936B017C0113DD182F86E0C816C3
:1015F000D104E104F10470F48BE58C9DF0018D9D24
:10160000F00D1124E955FE4F80819181009711F072
:10161000059729F0812FFFDC8FEF9FEF09C0D28162
:10162000C381C701B601E6DE812FF5DC8D2F9C2F2B
:10163000DF91CF911F91FF90EF90DF90CF900895B1
:101640008F929F92AF92BF92CF92DF92EF92FF92D2
:10165000CF934B015C0169017A01DADCC82F86E087
:1016600088169104A104B10490F48BE5889DF001E3
:10167000899DF00D1124E955FE4F808191810097DD
:1016800031F0DF01A05BBF4F2C91222321F08C2F82
:10169000C2DC8FEF16C0E45BFF4FC082D182E282D2
:1016A000F38221E02C938330910529F0079731F4E0
:1016B000C501B40154D0C501B4019CDE8C2FABDC54
:1016C00081E0CF91FF90EF90DF90CF90BF90AF90EF
:1016D0009F908F900895CF92DF92EF92FF92CF93D9
:1016E000DF9397FD33C06B017C01672B682B692B5F
:1016F00011F4B5D029C08CDCD82F409195015091C0
:1017000096016091A3017091A4018091A50190912F
:10171000A6019601C8DBC82F8F3F19F48D2F7BDC03
:1017200016C08091A3019091A4012BE5289FF001A0
:10173000299FF00D1124E955FE4F84E090E091833C
:10174000808378DE8D2F67DCC1E001C0CFEF8C2F66
:10175000DF91CF91FF90EF90DF90CF900895CF92DF
:10176000DF92EF92FF92CF936B017C0151DCC82F87
:1017700086E0C816D104E104F10488F48BE58C9D61
:10178000F0018D9DF00D1124E955FE4F808191816E
:10179000009729F08430910531F0079721F08C2FC4
:1017A0003ADC8FEF24C026E02C9DD0012D9DB00D9A
:1017B0001124A952BC4F12968D919C91139786309B
:1017C00091057CF4289FF001299FF00D1124E95226
:1017D000FC4F208131818D919C91820F931F9183C9
:1017E0008083C701B6018DD98C2F15DC81E0CF91A4
:1017F000FF90EF90DF90CF900895A2D915CCCF93B2
:1018000061E070E080E090E09ADEC6E080919501B2
:1018100090919601C89FF001C99FF00D1124E952E3
:10182000FC4F228133812630310574F4C29FF001D0
:10183000C39FF00D1124E952FC4F20813181232BED
:1018400019F4A9DDD7DDE2CF62E070E080E090E03E
:1018500076DECF91089583EB91E00AD0E0CBCF9371
:10186000D7DBC82FE7DD8C2FD6DB81E0CF91089541
:1018700008950F931F9300E010E0980104171507D7
:101880002607370764F4DC01ED91CD010F5F1F4F90
:101890002F4F3F4FE111F2CFB801C90104C06FEFE4
:1018A0007FEF8FEF9FEF1F910F910895A6E0B0E0BB
:1018B000EBE5FCE066C6182F9C831B0169017A01E9
:1018C000A7DB082F40E150E060E070E0812F9C81B1
:1018D000D0DF4B015C0141E050E060E070E0C1010D
:1018E000C8DF2B013C012FEF82169206A206B2063A
:1018F00049F16F3F7F4F8F4F9F4F21F153E0C51646
:10190000D104E104F104F0F480911A0490911B04D5
:10191000A0911C04B0911D0484309105A105B1056E
:101920008CF419831C811A8325E1289FA001299F2B
:10193000500D11245E834D8320E030E040E050E004
:10194000BA0104C0802F67DB8FEF42C048155905EC
:101950006A057B059CF4E981FA811191FA83E98398
:10196000ED81FE81E20FF31FE25EFB4F10834F5FBC
:101970005F4F6F4F7F4F2F5F3F4FE8CF1414150419
:10198000160417045CF4F101208135E1389FF00161
:10199000399FF00D1124E25EFB4F208B25E1289F3B
:1019A000F001299FF00D1124E25EFB4FC18AD28A1B
:1019B000E38AF48A0196A11DB11D80931A049093C5
:1019C0001B04A0931C04B0931D04802F24DB81E032
:1019D0002696E2E1F2C5A0E2B0E0E0EFFCE0D5C57A
:1019E00086E0E7E3F1E0DE015B9601900D928A95D7
:1019F000E1F710921A0410921B0410921C0410922A
:101A00001D048BE491E034DF80EDA82E80E0B82E39
:101A100088E090E09C01205D30404901DE015B964A
:101A20008E010F5F1F4FC12CD12C760138018D9193
:101A3000F8018193882339F03FEFC31AD30AE30AF0
:101A4000F30A8F01F4CFB4016A0D7B1D60537F4F01
:101A50004AE050E0CE0141960E94C915FE01719600
:101A6000BFEFCB1ADB0AEB0AFB0A20E1C216D10456
:101A7000E104F10464F481919FEB980F9A3108F42A
:101A8000805ED8018D938D018111EACF09C030E1CC
:101A9000C316D104E104F10419F081E791E00DC00F
:101AA000F50125913591459155916BE271E0C301A6
:101AB000FDDE8F3F19F486E991E0DADEF9E2AF0E40
:101AC000B11C2BE4A21621E0B20609F0A7CF2FEF3C
:101AD0003FEFA9016BE271E087E391E0E7DE81E08F
:101AE000A096EEE06EC54F925F926F927F928F92BA
:101AF0009F92AF92BF92DF92EF92FF920F931F934C
:101B0000CF93DF9300D000D01F92CDB7DEB7E09027
:101B10001A04F0901B0400911C0410911D04E9822A
:101B2000FA820B831C832EE134E0812C912C54012A
:101B3000E980FA800B811C818E149F04A006B106F7
:101B4000ACF47C01F901412C512C3201D7014191B7
:101B50004423C1F00FEFE01AF00A5C9145130AC06C
:101B60001FEF411A510A610A710AF0CF6FEF7FEF40
:101B7000CB0165C00FEF801A900AA00AB00A2B5E55
:101B80003F4FD6CF7D83D62E40E150E060E070E03D
:101B900070DE698385E1889D8001899D100D112487
:101BA000025D1B4F40E150E060E070E0C80161DE83
:101BB000A9812A2FAA0F330B440B550B2419350981
:101BC000460957092B013C01B1E04B1A5108610845
:101BD0007108420E531E641E751EE1E14E1651043B
:101BE000610471041CF62B013C01D801ED2DFD812F
:101BF00081E0481A5108610871081414150416048C
:101C000017041CF48D918193F3CF1216130614065A
:101C100015064CF4D7018D917D0181932150310936
:101C200041095109F2CF85E1889DF001899DF00DB0
:101C30001124E25EFB4F61897289838994890F9038
:101C40000F900F900F900F90DF91CF911F910F91F8
:101C5000FF90EF90DF90BF90AF909F908F907F901C
:101C60006F905F904F900895CF92DF92EF92FF9226
:101C7000FB01C12CD12C7601C216D306E406F50671
:101C800064F46191DC016D93CD01662341F0BFEFF7
:101C9000CB1ADB0AEB0AFB0AEFCF8FEF01C081E022
:101CA000FF90EF90DF90CF900895A0E1B0E0EAE5DB
:101CB000FEE06DC48B0149015A0120E130E040E0B3
:101CC00050E0BC01CE010196CFDF8F3FF1F0C12C77
:101CD000D12C76010DC020E130E040E050E0B801A9
:101CE000CE010196C1DF8FEFC81AD80AE80AF80AB8
:101CF00080911A0490911B04A0911C04B0911D04C2
:101D0000C816D906EA06FB0614F08FEF0AC0B80120
:101D1000CE010196E8DE681579058A059B05D9F2A2
:101D2000862F6096ECE04FC4A0E1B0E0E9E9FEE068
:101D300036C4FC01CB018A0125913591459155911D
:101D4000BE016F5F7F4FB1DF682F880F770B880B65
:101D5000990B6F3F2FEF72078207920731F09801BE
:101D6000AE014F5F5F4FD8DA01C08FEF6096E4E0BD
:101D700032C4A0E0B0E0EEEBFEE005C4E12CF12CB3
:101D800080E090E00091740410917504C091720499
:101D9000D0917304B801681B790B80E090E092D574
:101DA0002AE336E441E75FE391D62B013C01BE0113
:101DB0006E197F0980E090E085D52AE336E441E79B
:101DC0005FE384D64B015C019B01AC01C301B2010E
:101DD0003ED420E030E040E05FE378D66B017C0148
:101DE000A3019201C501B40131D420E030E040E20A
:101DF00051E495D420915C0130915D0140915E01E8
:101E000050915F0124D460935C0170935D018093D5
:101E10005E0190935F0196D19B01AC01C701B601B1
:101E200055D69B01AC016091640170916501809170
:101E30006601909167010BD4609364017093650112
:101E4000809366019093670160915C0170915D01E0
:101E500080915E0190915F0168D09B01AC01C70148
:101E6000B60134D69B01AC016091600170916101B3
:101E70008091620190916301EAD360936001709355
:101E80006101809362019093630164E670E080E0F9
:101E900090E021DC7E01C80175CFCF938ED11F92D7
:101EA0001F928DE391E09F938F931F92C3E1CF9395
:101EB00081E08F9382E08F9389EB9EE09F938F93D5
:101EC0000E941C0388DB1F921F9281E491E09F9384
:101ED0008F931F9284E18F931F9280E48F938FE101
:101EE00092E19F938F930E941C0375DB1F921F92B8
:101EF00085E491E09F938F931F92CF931F9280E888
:101F00008F938EEE91E19F938F930E941C0363DB6E
:101F100056D28DB79EB74E960FB6F8949EBF0FBEA1
:101F20008DBF80E090E0CF9108958F929F92AF9205
:101F3000BF92CF92DF92EF92FF92CF93DF936B012C
:101F40007C0120E030E0A901E6D3C82FCC1FCC27CC
:101F5000CC1F87FF04C0F7FAF094F7F8F0942BED4C
:101F60003FE049EC50E4C701B601ACD51816ACF41B
:101F70002BED3FE049EC50E4C701B601D0D371D45A
:101F8000A3D42BED3FE049EC50E4A0D59B01AC017C
:101F9000C701B6015BD36B017C012BED3FE049E447
:101FA00050E4C701B6018ED518165CF42BED3FE066
:101FB00049E450E4C701B60149D36B017C0181E0DB
:101FC000C827D0E02BED3FE049EC5FE3C701B60145
:101FD00079D518164CF4A70196016BED7FE089E4E2
:101FE00090E434D36B017C012BED3FE049E45FE3E7
:101FF000C701B60190D387FF4CC023E839EF42EA0E
:102000005FE3C701B60162D54B015C019B01AC01E6
:102010005DD56B017C0125E63CE246EB58EA56D5DE
:1020200024E637E744EF5CE212D3A70196014ED5D0
:1020300026EA33E841EF50E309D3A701960146D5DC
:102040002AE13CE348EA54E302D3A70196013ED5D6
:1020500026E639E649E158E3F9D2A701960136D5DB
:1020600023EE35E343E25BE3F2D2A70196012ED5DE
:1020700027EE3DE545EA5DE3E9D2A701960126D5C5
:102080002BED3FE049E45FE3E2D2A50194011ED5C8
:102090004BC0A70196016BED7FE089EC9FE3D6D2A0
:1020A00023E839EF42EA5FE311D59B01AC010ED57D
:1020B0006B017C0126E33CE249ED5AEA07D52BE0AF
:1020C00036EE4CEF5EE2C3D2A7019601FFD426EFB5
:1020D00038E643ED52E3BAD2A7019601F7D423E8DC
:1020E0003AEF40E756E3B3D2A7019601EFD424EECE
:1020F00039EE4AEA59E3AAD2A7019601E7D428EFBC
:1021000030EE41E85CE3A3D2A7019601DFD426EECE
:1021100039EE4DE95EE39AD2A7019601D7D420E0CB
:1021200030E040E85FE393D2CD2B09F09058DF9187
:10213000CF91FF90EF90DF90CF90BF90AF909F90A6
:102140008F900895CF92DF92EF92FF926B017C0106
:1021500020E030E0A901DFD287FF04C0F7FAF09455
:10216000F7F8F0942BED3FE049EC50E4C701B601DD
:10217000A9D41816ACF42BED3FE049EC50E4C701AC
:10218000B601CDD26ED3A0D32BED3FE049EC50E4A5
:102190009DD49B01AC01C701B60158D26B017C01F3
:1021A0002BED3FE049EC5FE3C701B60150D2BDDE45
:1021B000FF90EF90DF90CF900895E0910601F091AD
:1021C0000701158289E1848386E0828388E1818327
:1021D0000895E0910601F0910701908195FFFDCFF0
:1021E00086830895CF93DF93EC018991882311F0C2
:1021F000F0DFFBCFDF91CF9108958AE0EADF8DE039
:10220000E8CFAEE2B0E0E6E0F1E1BBC12B013C017A
:102210005EA74DA720E030E0A9017DD287FF0CC06A
:102220008DE2898377FA709477F870949E012E5F1F
:102230003F4F3E8F2D8F05C0AE014F5F5F4F5E8FCA
:102240004D8FC301B201D8D22BA33CA34DA35EA3F3
:102250006FA378A789A79AA74901B42FF52FE62F76
:10226000798F1C0181E090E09C8F8B8F9AE0A92EE2
:10227000B12CC12CD12CE12CF12C00E010E0940108
:102280004B2F5F2F6E2F798DC1011FD14901B42FC4
:10229000F52FE62F798F1C01A0E0AAD139F02B8D04
:1022A0003C8D2F5F3F4F3C8F2B8FE0CF4D8D5E8D50
:1022B0008B8D9C8D480F591F5CA74BA75A8F498F58
:1022C0008BA09CA09DA19F8FEEA1E8A3FFA1F9A3E5
:1022D00028A52AA329A43AA48AE0A82EB12CC12CAF
:1022E000D12CE12CF12C00E010E094014F8D58A18D
:1022F00069A17AA1C101E7D0205DE98DFA8D229311
:10230000FA8FE98F94014F8D58A169A17AA1C1017B
:10231000DCD049014F8F58A369A37AA31C01298DF2
:102320003A8D4D8D5E8D24173507B1F68B8C9C8CC4
:102330005FEF851A950A820E931E8EE2EBA5FCA52F
:1023400080832BA13CA14DA15EA16FA178A589A599
:102350009AA5F5D29B01AC01C301B20177D134013A
:102360009301281939094DA55EA524173507C4F432
:1023700020E030E040E251E4A9D36B017C0171D24E
:1023800020E3260FF30121933F01072E000C880B59
:10239000990B9AD29B01AC01C701B60157D1E0CF8E
:1023A000CA0157FF02C080E090E0F401E80FF91F76
:1023B0001082CE01019616DFAE96E2E1FEC080E209
:1023C00084B968EC70E080E090E085D92D9A68ECE3
:1023D00070E080E090E07FD92D98F3CF89E491E020
:1023E00001DF6091640170916501809166019091B7
:1023F000670143E050E005DF8BE491E0F3DE60919C
:10240000600170916101809162019091630143E0EC
:1024100050E0F7DE8EE491E0E5DE60915C017091C2
:102420005D0180915E0190915F0143E050E0E9DE43
:10243000E4DE64EF71E080E090E04DD9CFCF20E0A2
:1024400080E0E0910401F0910501C081C470D08169
:10245000D8708C1749F080917204909173040196A2
:1024600090937304809372042D1749F08091740443
:10247000909175040196909375048093740464E1BF
:1024800070E080E090E027D92D2F8C2FDACF052E39
:1024900097FB16F400940FD057FD05D0B5D007FC7C
:1024A00002D046F408C050954095309521953F4F95
:1024B0004F4F5F4F089590958095709561957F4F30
:1024C0008F4F9F4F0895689401C0E8948F929F9218
:1024D000CF93DF9305D0DF91CF919F908F90089598
:1024E00088249924F401E401B0E49F93AA279A1563
:1024F0008B049C04ED05FE05CF05D007A10798F4D9
:10250000AD2FDC2FCF2FFE2FE92D982C892E982F61
:10251000872F762F652F542F432F322F2227B85025
:1025200031F7BF9127C01B2EBF91BB27220F331F4E
:10253000441F551F661F771F881F991F881C991CF1
:10254000EE1FFF1FCC1FDD1FAA1FBB1F8A149B0499
:10255000EC05FD05CE05DF05A007B10748F08A1898
:102560009B08EC09FD09CE09DF09A00BB10B216026
:102570001A94E1F62EF49401AF01BE01CD01000CD6
:1025800008952F923F924F925F926F927F928F9217
:102590009F92AF92BF92CF92DF92EF92FF920F93F2
:1025A0001F93CF93DF93CDB7DEB7CA1BDB0B0FB6FC
:1025B000F894DEBF0FBECDBF09942A8839884888B9
:1025C0005F846E847D848C849B84AA84B984C8844F
:1025D000DF80EE80FD800C811B81AA81B981CE0F46
:1025E000D11D0FB6F894DEBF0FBECDBFED0108952B
:1025F0000024A7FD00942A1730054005500560050A
:102600007005800590050895A1E21A2EAA1BBB1B38
:10261000FD010DC0AA1FBB1FEE1FFF1FA217B307AE
:10262000E407F50720F0A21BB30BE40BF50B661FC4
:10263000771F881F991F1A9469F760957095809588
:1026400090959B01AC01BD01CF0108955058BB2767
:10265000AA270ED0FDC1EED130F0F3D120F031F435
:102660009F3F11F41EF4D3C10EF4E095E7FBC9C1FE
:10267000E92FFFD180F3BA17620773078407950724
:1026800018F071F49EF517C20EF4E0950B2EBA2FD8
:10269000A02D0B01B90190010C01CA01A001112468
:1026A000FF27591B99F0593F50F4503E68F11A1614
:1026B000F040A22F232F342F4427585FF3CF4695A5
:1026C00037952795A795F0405395C9F77EF41F16C7
:1026D000BA0B620B730B840BBAF09150A1F0FF0F91
:1026E000BB1F661F771F881FC2F70EC0BA0F621F7D
:1026F000731F841F48F4879577956795B795F7956D
:102700009E3F08F0B3CF9395880F08F09927EE0FFE
:1027100097958795089551D108F481E008950CD0DC
:1027200097C18FD140F086D130F021F45F3F19F08E
:1027300068C15111C1C16BC19CD198F39923C9F3F0
:102740005523B1F3951B550BBB27AA2762177307B7
:10275000840738F09F5F5F4F220F331F441FAA1F6B
:10276000A9F333D00E2E3AF0E0E830D0915050402B
:10277000E695001CCAF729D0FE2F27D0660F771FD9
:10278000881FBB1F261737074807AB07B0E809F0BB
:10279000BB0B802DBF01FF2793585F4F2AF09E3F50
:1027A000510568F02EC188C15F3FECF3983EDCF321
:1027B000869577956795B795F7959F5FC9F7880FC9
:1027C000911D9695879597F90895E1E0660F771F1B
:1027D000881FBB1F621773078407BA0720F0621BAC
:1027E000730B840BBA0BEE1F88F7E0950895BEE3D8
:1027F00004D008F490E80895BFE322273327A90105
:1028000040D158F19F5740F1B91738F1BFE3B91BD8
:102810009927B8503AF4660F771F881F991FB39510
:10282000D2F316C0B8504AF0232F342F452F562F1D
:10283000672F782F8827B850BAF7B85F49F0869588
:10284000779567955795479537952795BA95B9F731
:102850000EF4E0D088940895889460E070E0CB0195
:10286000089504D06894B11127C108950AD188F061
:102870009F5790F0B92F9927B751A0F0D1F0660F6C
:10288000771F881F991F1AF0BA95C9F712C0B13087
:1028900081F011D1B1E008950EC1672F782F8827FC
:1028A000B85F39F0B93FCCF3869577956795B395C6
:1028B000D9F73EF490958095709561957F4F8F4F35
:1028C0009F4F0895E89409C097FB3EF4909580953A
:1028D000709561957F4F8F4F9F4F9923A9F0F92FE6
:1028E00096E9BB279395F695879577956795B79564
:1028F000F111F8CFFAF4BB0F11F460FF1BC06F5F4A
:102900007F4F8F4F9F4F16C0882311F096E911C05B
:10291000772321F09EE8872F762F05C0662371F07C
:1029200096E8862F70E060E02AF09A95660F771F90
:10293000881FDAF7880F9695879597F90895E89498
:10294000F92F96EBFF2381F0121613061406440BA1
:102950009395F69587957795679557954040FF2312
:10296000B9F71BC099270895882351F49850D2F7DE
:10297000872B762F652F542F432F322F20E0B1F372
:10298000121613061406440B88233AF09A95440F46
:10299000551F661F771F881FCAF755234AF4440F37
:1029A000551F11F460FF04C06F5F7F4F8F4F9F4F23
:1029B000880F9695879597F90895990F0008550FF8
:1029C000AA0BE0E8FEEF16161706E807F907C0F0B5
:1029D00012161306E407F50798F0621B730B840BBD
:1029E000950B39F40A2661F0232B242B252B21F497
:1029F00008950A2609F4A140A6958FEF811D811D37
:102A0000089597F99F6780E870E060E008959FEF70
:102A100080EC0895909580957095609550954095BF
:102A2000309521953F4F4F4F5F4F6F4F7F4F8F4FE7
:102A30009F4F089500240A941616170618060906D3
:102A4000089500240A941216130614060506089524
:102A5000092E0394000C11F4882352F0BB0F40F4AC
:102A6000BF2B11F460FF04C06F5F7F4F8F4F9F4FEC
:102A7000089557FD9058440F551F59F05F3F71F06E
:102A80004795880F97FB991F61F09F3F79F08795D5
:102A90000895121613061406551FF2CF4695F1DF5E
:102AA00008C0161617061806991FF1CF86957105EE
:102AB000610508940895E894BB2766277727CB0122
:102AC00097F908957ADF08F48FEF08950BD0C0CFFF
:102AD000B1DF28F0B6DF18F0952309F092CF97CF39
:102AE0001124EACFC6DFA0F3959FD1F3950F50E0F4
:102AF000551F629FF001729FBB27F00DB11D639FB0
:102B0000AA27F00DB11DAA1F649F6627B00DA11D55
:102B1000661F829F2227B00DA11D621F739FB00DFB
:102B2000A11D621F839FA00D611D221F749F33276B
:102B3000A00D611D231F849F600D211D822F762F04
:102B40006A2F11249F5750408AF0E1F088234AF001
:102B5000EE0FFF1FBB1F661F771F881F915050404D
:102B6000A9F79E3F510570F04CCFA6CF5F3FECF325
:102B7000983EDCF3869577956795B795F795E79539
:102B80009F5FC1F7FE2B880F911D9695879597F94A
:102B90000895FB01DC014150504048F005900D9232
:102BA0000020C9F701C01D9241505040E0F7089540
:102BB000DC0101C06D9341505040E0F70895AEE054
:102BC000B0E0E4EEF5E1EBCC8C01FA0186E08C8319
:102BD0001A83098377FF02C060E070E8CB01019798
:102BE0009E838D83A901BF01CE01019611D04D8135
:102BF0005E8157FD0AC02F813885421753070CF4B8
:102C00009A01F801E20FF31F10822E96E4E0E3CC64
:102C1000ABE0B0E0EDE0F6E1B4CC6C017B018A0101
:102C2000FC0117821682838181FFBFC1CE0101960C
:102C30003C01F6019381F70193FD859193FF81910A
:102C40007F01882309F4ADC1853239F493FD859164
:102C500093FF81917F01853221F4B60190E0C0D1CC
:102C6000E8CF912C212C312CFFE1F315D8F08B32D9
:102C700079F038F4803279F08332A1F4232D206189
:102C80001DC08D3261F0803369F4232D216016C0A0
:102C9000832D8260382EE32DE4603E2E2AC0F32D72
:102CA000F8601DC037FC2DC020ED280F2A3040F001
:102CB0008E32B9F436FC75C1232D2064322E19C032
:102CC00036FE06C08AE0989E200D1124922E11C077
:102CD000EAE02E9E200D1124222EF32DF0623F2ECD
:102CE00008C08C3621F4832D8068382E02C08836C7
:102CF00041F4F70193FD859193FF81917F0181114B
:102D0000B3CF982F9F7D9554933028F40C5F1F4FBD
:102D10009FE399830DC0833631F0833771F083359B
:102D200009F055C020C0F801808189830E5F1F4FD4
:102D300088248394912C530112C02801F2E04F0E95
:102D4000511CF801A080B18036FE03C0692D70E0EF
:102D500002C06FEF7FEFC50138D14C018201F32D26
:102D6000FF773F2E15C0280122E0420E511CF801CA
:102D7000A080B18036FE03C0692D70E002C06FEF05
:102D80007FEFC50117D14C01F32DF0683F2E820172
:102D900033FC19C0822D90E088169906A0F4B60184
:102DA00080E290E01DD12A94F5CFF50137FC8591A2
:102DB00037FE81915F01B60190E012D121102A9473
:102DC00021E0821A91088114910479F7E1C08436D8
:102DD00011F0893639F5F80137FE07C0608171813D
:102DE000828193810C5F1F4F08C060817181072E23
:102DF000000C880B990B0E5F1F4FF32DFF763F2EB3
:102E000097FF09C090958095709561957F4F8F4F82
:102E10009F4FF0683F2E2AE030E0A3011DD1882E9D
:102E2000861844C0853731F4232D2F7EB22E2AE038
:102E300030E025C0932D997FB92E8F36C1F018F45C
:102E4000883579F0AEC0803719F0883721F0A9C0F5
:102E5000E92FE061BE2EB4FE0DC0FB2DF460BF2E45
:102E600009C034FE0AC0292F2660B22E06C028E011
:102E700030E005C020E130E002C020E132E0F8019E
:102E8000B7FE07C060817181828193810C5F1F4F03
:102E900006C06081718180E090E00E5F1F4FA3014A
:102EA000DBD0882E8618FB2DFF773F2E36FE0DC017
:102EB000232D2E7FA22E891458F434FE0BC032FC31
:102EC00009C0832D8E7EA82E05C0B82CA32C03C06C
:102ED000B82C01C0B92CA4FE0FC0FE01E80DF11DF5
:102EE0008081803321F49A2D997EA92E09C0A2FEFB
:102EF00006C0B394B39404C08A2D867809F0B394C5
:102F0000A3FC10C0A0FE06C0B21480F4280C922CC2
:102F10009B180DC0B21458F4B60180E290E060D066
:102F2000B394F8CFB21418F42B1802C0982C212CAB
:102F3000A4FE0FC0B60180E390E052D0A2FE16C0FE
:102F4000A1FC03C088E790E002C088E590E0B601EC
:102F50000CC08A2D867851F0A1FE02C08BE201C020
:102F600080E2A7FC8DE2B60190E03AD0891430F4FB
:102F7000B60180E390E034D09A94F8CF8A94F301BC
:102F8000E80DF11D8081B60190E02AD08110F6CFC6
:102F9000222009F44ECEB60180E290E021D02A949E
:102FA000F7CFF6018681978102C08FEF9FEF2B96B6
:102FB000E2E103CBFC010590615070400110D8F7AD
:102FC000809590958E0F9F1F0895FC016150704071
:102FD00001900110D8F7809590958E0F9F1F08954E
:102FE0000F931F93CF93DF93FB01238121FD03C038
:102FF0008FEF9FEF2CC022FF16C04681578124819E
:1030000035814217530744F4A081B1819D012F5FA0
:103010003F4F318320838C93268137812F5F3F4F31
:103020003783268314C08B01EC01FB010084F185FA
:10303000E02D0995892BE1F6D80116968D919C918A
:103040001797019617969C938E931697CE01DF9152
:10305000CF911F910F910895FA01AA27283051F1BD
:10306000203181F1E8946F936E7F6E5F7F4F8F4FB9
:103070009F4FAF4FB1E03ED0B4E03CD0670F781F18
:10308000891F9A1FA11D680F791F8A1F911DA11DFD
:103090006A0F711D811D911DA11D20D009F4689436
:1030A0003F912AE0269F11243019305D3193DEF6DE
:1030B000CF010895462F4770405D4193B3E00FD094
:1030C000C9F7F6CF462F4F70405D4A3318F0495D7F
:1030D00031FD4052419302D0A9F7EACFB4E0A69562
:1030E0009795879577956795BA95C9F70097610584
:1030F000710508959B01AC010A2E069457954795DA
:1031000037952795BA95C9F7620F731F841F951FCE
:04311000A01D089561
:10311400C00006002900C000201B5B306D1B5B3221
:103124004A1B5B3B48000A467265654D454D3A258E
:103134006420286279746573290A0A006E756C6CC0
:1031440070006D61696E002F6465762F006C6F638B
:1031540000775F7200735F6F0028002C2000292025
:08316400416E676C653A200022
:00000001FF
